:020000040800F2
:10000000B81F01209D0100087341000881360008D7
:1000100051410008390500088DBC000800000000AF
:1000200000000000000000000000000079690008E6
:10003000AD12000800000000DD430008516B00080D
:10004000B7010008B7010008B7010008B7010008B0
:10005000B7010008B7010008B7010008B7010008A0
:10006000B7010008B7010008B7010008B701000890
:10007000B7010008B7010008B7010008B701000880
:10008000B7010008B7010008B7010008B701000870
:10009000B7010008B7010008B7010008B701000860
:1000A000B7010008B7010008B7010008B701000850
:1000B000696C0008716C0008B7010008B7010008FE
:1000C000B7010008B7010008B7010008B701000830
:1000D000B7010008B7010008B7010008B701000820
:1000E000B7010008B7010008B7010008B701000810
:1000F000B7010008B7010008B7010008B701000800
:10010000B7010008694D0008B7010008B7010008F1
:10011000B7010008B7010008B7010008B7010008DF
:10012000B7010008B7010008B7010008010A00087C
:10013000B701000859160008B7010008B701000808
:10014000B7010008B7010008B7010008B7010008AF
:10015000B7010008B7010008B701000815730008CF
:10016000B7010008B7010008B7010008B70100088F
:10017000B70100081D430008B7010008B7010008D7
:10018000B7010008B7010008DFF80CD000F074F8E0
:100190000048004729020108B81F0120064880478F
:1001A00006480047FEE7FEE7FEE7FEE7FEE7FEE75C
:1001B000FEE7FEE7FEE7FEE7B56B000889010008F1
:1001C00040EA01039B0703D009E008C9121F08C0D9
:1001D000042AFAD203E011F8013B00F8013B521E59
:1001E000F9D27047D2B201E000F8012B491EFBD2D0
:1001F00070470022F6E710B513460A460446194632
:10020000FFF7F0FF204610BD421E12F8013F002B01
:10021000FBD111F8013B02F8013B002BF9D17047EB
:1002200010B5044604E00B7800F8013B03B1491C0B
:10023000521EF8D2204610BD034611F8012B00F8DB
:10024000012B002AF9D11846704730B50B460146FC
:1002500000202022012409E021FA02F59D4205D365
:1002600003FA02F5491B04FA02F52844151EA2F10F
:100270000102F1DC30BD0000064C074D06E0E068ED
:1002800040F0010394E8070098471034AC42F6D3DD
:10029000FFF77EFFE07D0108007E010870B58C1835
:1002A00010F8015B15F0070301D110F8013B2A118A
:1002B00006D110F8012B03E010F8016B01F8016B77
:1002C0005B1EF9D12B0705D40023521E0DD401F873
:1002D000013BFAE710F8013BCB1A921C03E013F83C
:1002E000015B01F8015B521EF9D5A142D8D3002071
:1002F00070BD2DE9F04107460C4615461E463020DC
:100300000BF0C6FC38460BF0CDFC31200BF0C0FCE6
:1003100038120BF0C7FC34200BF0BAFC20460BF06F
:10032000C1FC35200BF0B4FC20120BF0BBFC3220DA
:100330000BF0AEFC28460BF0B5FC33200BF0A8FC0C
:1003400028120BF0AFFC36200BF0A2FC30460BF06D
:10035000A9FC37200BF09CFC30120BF0A3FC04F03E
:100360003FF8BDE8F08100002DE9FC4706460F4646
:10037000904699460A9C4FF47A7100200CF074F86C
:10038000002531E025B1012D0CD0022D1ED113E046
:1003900019A04B4642463946CDE9000430460FF0DD
:1003A000D9FC13E01BA04B4642463946CDE9000478
:1003B00030460FF0CFFC09E01DA04B4642463946BF
:1003C000CDE9000430460FF0C5FC00BF00BF00BF00
:1003D00000200BF0EBFD0028FAD04FF47A710020DA
:1003E0000CF042F8681CC5B2032DCBDB00200FF0E7
:1003F0003BFABDE8FC8700003E203320C3EBD6D398
:10040000BAF3D7D4B6AFBDF8C8EBCFB5CDB32E2E67
:100410002E0000003E203220C3EBD6D3BAF3D7D44F
:10042000B6AFBDF8C8EBCFB5CDB32E2E2E00000071
:100430003E203120C3EBD6D3BAF3D7D4B6AFBDF844
:10044000C8EBCFB5CDB32E2E2E00000010B50BF0AB
:100450001DFF0BF037FF0BF013FE0BF0D7FF0BF077
:1004600087FE0BF04BFE10BD10B50BF08DFF0BF0AF
:1004700073FE0BF001FE10BD10B522480078002875
:1004800036D0012802D0022833D110E01E4800885F
:10049000401C1D490880084600881C49098888427C
:1004A00004DB00F039F802201649087027E01648EE
:1004B0000088401C144908800846008814490988AF
:1004C000884214DB00201049088012480088012867
:1004D0000ADD10480088401E0E49088001200949A5
:1004E000087000F021F802E000200649087006E0DC
:1004F00005E000F011F800200249087000BF00BFBD
:1005000010BD00003C0000204000002044000020FE
:10051000420000203E00002010B54FF0004000F0E7
:10052000AFF803F003FF10BD10B54FF0004006F028
:100530006DFA03F0FBFE10BD00BFFEE710B58AB0F8
:1005400019481A49886140F2FF10C86118A101A832
:100550000DF032FB044614B100200AB010BD00BFFC
:10056000124901A80DF03CFC04460CB10020F4E750
:100570000E48407A08B90020EFE70C48007A00F0F6
:1005800020000028ECD009488069007828B9074984
:1005900009310A48FFF750FE04E004488169074822
:1005A000FFF74AFE0120D8E77C040020B0060020B7
:1005B000303A2F7570646174650000007B0600207E
:1005C00010B58AB019481A49886140F2FF10C86115
:1005D00018A101A80DF0F0FA044614B100200AB0E9
:1005E00010BD00BF124901A80DF0FAFB04460CB182
:1005F0000020F4E70E48407A08B90020EFE70C48E5
:10060000007A00F020000028ECD0094880690078CA
:1006100028B9074909310A48FFF70EFE04E00448EB
:1006200081690748FFF708FE0120D8E7280200206B
:100630005C040020313A2F7570646174650000001D
:100640002704002010B500BF03F01EFD00F080015C
:100650008029F9D010BD10B58E200BF019FB04F0E5
:10066000CFF8C4B244F0400420460BF01BFB03F06B
:10067000B7FE10BD10B572B60BF0B2FC10BD000095
:10068000024909688143014A116070473400002023
:1006900070B500254FF4803400E0641E24B1802042
:1006A00004F068FA0028F8D014B90325284670BD74
:1006B00040F2FF5004F03CF92846F8E72DE9F041FC
:1006C000064600274848056801E04748056805F0E8
:1006D00045000028F9D005F0040030B103270420BC
:1006E00004F026F93846BDE8F08105F0010028B194
:1006F0000127012004F01CF93846F4E704F034FA2D
:10070000B04202D010273846EDE740F2FF5004F027
:100710000FF9002004F0FEFA04463448204008B9DE
:100720003846E0E704F0004008B11C20DBE704F0A5
:10073000804008B10920D6E704F0005008B10A2033
:10074000D1E704F0805008B10B20CCE704F0006042
:1007500008B10C20C7E704F0806008B10D20C2E7A3
:1007600004F0807008B10E20BDE704F4000008B169
:100770000F20B8E704F4800008B11020B3E704F4B8
:10078000001008B11120AEE704F4801008B1122067
:10079000A9E704F4002008B11320A4E704F48020A2
:1007A00008B114209FE704F4003008B115209AE73F
:1007B00004F4803008B1162095E704F4004008B135
:1007C000172090E704F4804008B118208BE704F468
:1007D000005008B1192086E704F0080008B11A207B
:1007E00081E738467FE70000342C014008E0FFFD38
:1007F00070B500251048046801E00F48046804F053
:1008000045000028F9D004F0040028B10325042095
:1008100004F08EF8284670BD04F0010028B10125CF
:10082000012004F085F82846F5E740F2FF5004F077
:100830007FF82846EFE70000342C014070B5002512
:100840000B48046801E00A48046804F045000028E9
:10085000F9D004F0040028B10325042004F068F85E
:10086000284670BD40F2FF5004F062F82846F8E7D1
:10087000342C01402DE9F04106460F464FF00008A8
:100880002248056801E02148056805F04500002878
:10089000F9D005F0040038B14FF00308042004F04B
:1008A00047F84046BDE8F08105F0010030B14FF057
:1008B0000108012004F03CF84046F3E704F054F945
:1008C000B04203D04FF010084046EBE740F2FF5033
:1008D00004F02EF8002004F01DFA044604F46040F1
:1008E00018B9200C38804046DCE704F4005008B109
:1008F0001320D7E704F4804008B11020D2E704F4B5
:10090000004008B10F20CDE74046CBE7342C014032
:1009100070B500264FF480350F48046802E06D1E64
:100920000D48046804F0450008B9002DF7D115B151
:1009300004F0040028B10326042003F0F9FF304638
:1009400070BD04F0400028B10026402003F0F0FF05
:100950003046F5E73046F3E7342C01402DE9F04707
:1009600081460E461746484600F018F88046B8F112
:10097000000F02D1FF20BDE8F087002409E0315DBF
:1009800040460BF043F905460DB10120F3E7601C2A
:1009900084B2BC42F3DB0020EDE70000014609B958
:1009A00000207047012901D10020FAE7022901D176
:1009B0000020F6E7032901D10020F2E7042901D144
:1009C0000020EEE7052901D10148EAE70020E8E729
:1009D0006807002010B5084C08492068884209D1F2
:1009E0004FF0FF3120460BF061F908B9002010BD2F
:1009F0000120FCE70020FAE7FCFF01087D4A8E2F6A
:100A000010B505F00FF810BD70B504460D4634481A
:100A100084423AD032481830844236D030483030A0
:100A2000844232D02E48483084422ED02C48603048
:100A300084422AD02A487830844226D028489030F0
:100A4000844222D02648A83084421ED025488442C1
:100A50001BD024481830844217D0224830308442BA
:100A600013D02048483084420FD01E486030844262
:100A70000BD01C487830844207D01A48903084420A
:100A800003D01848A830844200D104E040F2344139
:100A900015A00BF037FA05F04050B0F1405F07D0D9
:100AA00005F0405020B11848284008B905B104E0CD
:100AB00040F235410CA00BF025FA0A48844202D2DC
:100AC000074E103E01E0074E103E05F0005018B1F1
:100AD0000E482840F06002E00C482840B06070BD2D
:100AE00010600240106402402E2E5C46574C494272
:100AF0005C7372635C73746D3332663478785F64F0
:100B00006D612E630000000082F002C07D0F7D0F3A
:100B100070B504460D462C4884423AD02A48183015
:100B2000844236D028483030844232D0264848307B
:100B300084422ED02448603084422AD02248783023
:100B4000844226D020489030844222D01E48A830CB
:100B500084421ED01D4884421BD01C481830844259
:100B600017D01A483030844213D018484830844295
:100B70000FD01648603084420BD01448783084423D
:100B800007D012489030844203D01048A8308442E5
:100B900000D104E040F2E1110DA00BF0B3F90DB16A
:100BA000012D00D104E04FF4F17109A00BF0AAF976
:100BB00025B1206840F00100206003E0206820F0AB
:100BC0000100206070BD000010600240106402400F
:100BD0002E2E5C46574C49425C7372635C73746D95
:100BE0003332663478785F646D612E6300000000F4
:100BF00010B50446724884423AD071481830844295
:100C000036D06F483030844232D06D48483084420C
:100C10002ED06B48603084422AD0694878308442B4
:100C200026D067489030844222D06548A83084425C
:100C30001ED0644884421BD062481830844217D0CA
:100C400060483030844213D05E48483084420FD030
:100C50005C48603084420BD05A487830844207D0D8
:100C600058489030844203D05648A830844200D17E
:100C700003E0C72154A00BF045F9206820F00100E3
:100C80002060002020606060A060E0602061212082
:100C900060614B48844204D13D2049491039886045
:100CA0008CE047481830844205D14FF474604449C1
:100CB0001039886082E042483030844205D14FF4D8
:100CC00074103F491039886078E03D4848308442CC
:100CD00005D14FF074603A49103988606EE03848A9
:100CE0006030844204D1404835491039C86065E01D
:100CF00033487830844204D13C4831491039C860C7
:100D00005CE02F489030844204D139482C49103996
:100D1000C86053E02A48A830844205D14FF03D50C6
:100D200027491039C86049E02648844204D13D2053
:100D300024490839086041E022481830844205D12E
:100D40004FF474601F490839086037E01D4830309F
:100D5000844205D14FF474101A49083908602DE017
:100D600018484830844205D14FF07460154908395D
:100D7000086023E013486030844204D11A481149C6
:100D8000091F08601AE00F487830844204D11748E0
:100D90000C49091F086011E00A489030844204D1D0
:100DA00013480849091F086008E00648A830844233
:100DB00004D14FF03D500349091F086010BD0000E9
:100DC00010600240106402402E2E5C46574C49428F
:100DD0005C7372635C73746D3332663478785F640D
:100DE0006D612E63000000003D000020400F0020D8
:100DF00000003D2070B504460D462C4884423AD090
:100E00002A481830844236D028483030844232D0C4
:100E10002648483084422ED02448603084422AD06C
:100E200022487830844226D020489030844222D014
:100E30001E48A83084421ED01D4884421BD01C4846
:100E40001830844217D01A483030844213D01848E2
:100E5000483084420FD01648603084420BD014488A
:100E60007830844207D012489030844203D0104832
:100E7000A830844200D104E040F229210DA00BF0FB
:100E800041F80DB1202D00D104E040F22A2109A043
:100E90000BF038F825B1206840F02000206003E016
:100EA000206820F02000206070BD0000106002402B
:100EB000106402402E2E5C46574C49425C737263AC
:100EC0005C73746D3332663478785F646D612E6361
:100ED0000000000070B504460D46164639488442AD
:100EE0003AD038481830844236D0364830308442C0
:100EF00032D03448483084422ED032486030844268
:100F00002AD030487830844226D02E48903084420F
:100F100022D02C48A83084421ED02B4884421BD0BB
:100F200029481830844217D027483030844213D0E3
:100F30002548483084420FD02348603084420BD08B
:100F400021487830844207D01F489030844203D033
:100F50001D48A830844200D104E040F261411BA04A
:100F60000AF0D0FF25F09E0008B905B104E040F278
:100F7000624116A00AF0C6FF0EB1012E00D104E0B6
:100F800040F2634111A00AF0BDFF05F0800048B1B6
:100F900026B1606940F08000606103E0606920F084
:100FA00080006061802D0BD02EB1206805F01E01FD
:100FB0000843206004E0206805F01E01884320609B
:100FC00070BD000010600240106402402E2E5C468E
:100FD000574C49425C7372635C73746D3332663490
:100FE00078785F646D612E630000000070B505467F
:100FF0000C460026A24885423AD0A14818308542C6
:1010000036D09F483030854232D09D4848308542A6
:101010002ED09B48603085422AD09948783085424E
:1010200026D097489030854222D09548A8308542F6
:101030001ED0944885421BD092481830854217D064
:1010400090483030854213D08E48483085420FD0CA
:101050008C48603085420BD08A487830854207D072
:1010600088489030854203D08648A830854200D118
:1010700004E04FF4A27184A00AF044FF2068D8B1C4
:101080002068B0F1007F17D02068B0F1806F13D0D6
:101090002068B0F1C06F0FD02068B0F1006F0BD0A6
:1010A0002068B0F1206F07D02068B0F1406F03D006
:1010B0002068B0F1606F00D104E040F2451172A0E9
:1010C0000AF020FFE06828B1E068402802D0E0681C
:1010D000802800D104E04FF4A3716BA00AF012FF46
:1010E000206920B12069B0F5803F00D204E040F2D1
:1010F000471165A00AF006FF6069B0F5007F01D0D6
:10110000606900B904E04FF4A4715FA00AF0FAFE30
:10111000A069B0F5806F01D0A06900B904E040F289
:10112000491159A00AF0EEFEE06938B1E069B0F566
:10113000006F03D0E069B0F5805F00D104E04FF4A8
:10114000A57151A00AF0DEFE206A38B1206AB0F520
:10115000005F03D0206AB0F5804F00D104E040F278
:101160004B1149A00AF0CEFE606A18B1606AB0F572
:10117000807F00D104E04FF4A67143A00AF0C2FEC4
:10118000A06A58B1A06AB0F5803F07D0A06AB0F558
:10119000003F03D0A06AB0F5403F00D104E040F228
:1011A0004D1139A00AF0AEFEE06A10B1E06A0428E1
:1011B00000D104E04FF4A77133A00AF0A3FE206B26
:1011C00040B1206B012805D0206B022802D0206B93
:1011D000032800D104E040F24F112BA00AF092FE48
:1011E000606B58B1606BB0F5000F07D0606BB0F169
:1011F000807F03D0606BB0F1C07F00D104E04FF47A
:10120000A87121A00AF07EFEA06B58B1A06BB0F5CA
:10121000001F07D0A06BB0F5800F03D0A06BB0F516
:10122000C00F00D104E040F2511117A00AF06AFE8D
:101230002E681D480640E16820680843616908433C
:10124000A1690843E1690843216A0843616A0843C8
:10125000A16A0843616B0843A16B084306432E60F3
:101260006E6926F00706D4E90B01084306436E6158
:10127000206968606068A860A068E86070BD0000D0
:1012800010600240106402402E2E5C46574C4942CA
:101290005C7372635C73746D3332663478785F6448
:1012A0006D612E63000000003F801CF0704710B598
:1012B00001200AF0EDFC80200AF0F4FC03F090F825
:1012C00010BD10B590200AF0E3FC10200AF0EAFCF3
:1012D000B0200AF0E7FC10BD08B53D208DF80000F5
:1012E00002208DF8010000208DF8020001208DF809
:1012F0000300684602F044FF08BD000010B5044634
:101300000648204008B904B104E04FF4F26104A09B
:101310000AF0F8FD0A48446110BD00000018FEFF05
:101320002E2E5C46574C49425C7372635C73746D3D
:101330003332663478375F6574682E6300000000CE
:101340000090024070B504460D461048204008B990
:1013500004B104E040F241710DA00AF0D3FD0DB1DB
:10136000012D00D104E040F2427109A00AF0CAFD4B
:101370002DB10F48C06920430D49C86104E00C48F5
:10138000C069A0430A49C86170BD00000018FEFF93
:101390002E2E5C46574C49425C7372635C73746DCD
:1013A0003332663478375F6574682E63000000005E
:1013B0000090024010B504460CB1012C00D104E0AD
:1013C00040F2F67108A00AF09DFD34B10E48806924
:1013D00040F002000C49886105E00B48806920F06C
:1013E00002000949886110BD2E2E5C46574C4942C7
:1013F0005C7372635C73746D3332663478375F6527
:1014000074682E63000000000090024070B50C4626
:1014100013460021124D286000BF18E000EB411276
:101420004FF00045156044F2F4555560C1EBC1150D
:1014300005EB450504EB850595605D1E8D4204D9DD
:1014400000EB41152035D56000E0D060491C994281
:10145000E4D3044DE860044D044E356070BD0000D7
:101460002001002000900240082B002024010020D1
:1014700070B504460D460DB1012D00D104E040F2D7
:10148000646107A00AF03EFD25B1606820F00040CD
:10149000606003E0606840F00040606070BD000084
:1014A0002E2E5C46574C49425C7372635C73746DBC
:1014B0003332663478375F6574682E63000000004D
:1014C00010B504460CB1012C00D104E040F2DF71EC
:1014D00008A00AF017FD34B10E48806940F40050AE
:1014E0000C49886105E00B48806920F400500949E7
:1014F000886110BD2E2E5C46574C49425C73726366
:101500005C73746D3332663478375F6574682E634C
:10151000000000000090024030B50C461346002148
:101520000F4D286000BF15E000EB41124FF480150D
:101530001560C1EBC11505EB450504EB850595600C
:101540005D1E8D4204D900EB41152035D56000E0C9
:10155000D060491C9942E7D3024D286130BD00009C
:101560001C0100200090024070B505460C4644B1B5
:10157000B4F5800F05D0B4F5000F02D0B4F5400FDC
:1015800000D104E040F2955103A00AF0BBFC2868AA
:101590002043286070BD00002E2E5C46574C494207
:1015A0005C7372635C73746D3332663478375F6575
:1015B00074682E630000000010B50121480602F097
:1015C00053FF00214FF0007002F04EFF10BD01B537
:1015D00081B0002000900198009002E00098401E29
:1015E000009000980028F9D10CBD000003488069E4
:1015F00040F480100149886170470000009002406B
:1016000001480068806870471C0100200146086896
:10161000C0F30D40704700B502460023106800F08B
:10162000004058B9106800F4004038B9106800F460
:10163000807018B11046FFF7E9FF0346184600BD59
:1016400000200449096801F0010109B1012000E00E
:10165000002070470090024010B501E002F070FDDC
:1016600006480068FFF7D7FF0028F7D14020FFF7B2
:1016700045FE4FF48030FFF741FE10BD20010020F1
:101680002DE9F04186B004460F464FF000080025D2
:1016900000200590F84E00902068012801D02068B5
:1016A00000B904E04FF48C71F4A00AF02BFC6068E0
:1016B00018B16068B0F5000F00D104E040F21911D4
:1016C000EEA00AF01FFCA06818B1A068B0F5800F6A
:1016D00000D104E04FF48D71E8A00AF013FCE0683B
:1016E000D8B1E068B0F5003F17D0E068B0F5802FC2
:1016F00013D0E068B0F5C02F0FD0E068B0F5002F30
:101700000BD0E068B0F5202F07D0E068B0F5402F8F
:1017100003D0E068B0F5602F00D104E040F21B1167
:10172000D6A00AF0EFFB206918B12069B0F5803F20
:1017300000D104E04FF48E71D0A00AF0E3FB6069A1
:1017400018B16069B0F5804F00D104E040F21D117E
:10175000CAA00AF0D7FBA06918B1A069B0F5005F74
:1017600000D104E04FF48F71C4A00AF0CBFBE06914
:10177000B0F5805F01D0E06900B904E040F21F11CC
:10178000BEA00AF0BFFB206AB0F5006F01D0206A4E
:1017900000B904E04FF49071B8A00AF0B3FB606A9E
:1017A000B0F5806F01D0606A00B904E040F2211109
:1017B000B2A00AF0A7FBA06A18B1A06AB0F5007F3A
:1017C00000D104E04FF49171ACA00AF09BFBE06AF9
:1017D000802801D0E06A00B904E040F22311A7A0FC
:1017E0000AF090FB206B40B1206B202805D0206BC5
:1017F000402802D0206B602800D104E04FF49271A1
:101800009EA00AF07FFB606B102801D0606B00B9CE
:1018100004E040F2251199A00AF074FBA06BB0F12E
:10182000004F01D0A06B00B904E04FF4937193A076
:101830000AF068FBE06BB0F5007F05D0E06BB0F517
:10184000407F01D0E06B00B904E040F227118BA08B
:101850000AF058FB206C402805D0206C802802D06C
:10186000206CC02800D104E04FF4947183A00AF0EA
:1018700049FB606C10B1606C202800D104E040F29C
:1018800029117EA00AF03EFBA06C10B1A06C0828C4
:1018900000D104E04FF4957178A00AF033FB40F2D8
:1018A0000441206D884207D0206D042804D0206DAB
:1018B00010B1206D102800D104E04FF496716FA094
:1018C0000AF020FB40F20241606D884204D0606D56
:1018D000022801D0606D00B904E040F22D1167A02C
:1018E0000AF010FB206EB0F5803F00D204E04FF408
:1018F000977162A00AF006FB606E10B1606E8028DE
:1019000000D104E040F22F115CA00AF0FBFAA06EB7
:1019100040B1A06E102805D0A06E202802D0A06E85
:10192000302800D104E04FF4987154A00AF0EAFA8C
:10193000E06E082801D0E06E00B904E040F23111F9
:101940004EA00AF0DFFA206F042801D0206F00B902
:1019500004E04FF4997149A00AF0D4FA606F0228AC
:1019600001D0606F00B904E040F2331143A00AF0E7
:10197000C9FAA06FB0F5803F01D0A06F00B904E0B4
:101980004FF49A713DA00AF0BDFAE06FB0F5803FC8
:1019900000D204E040F2351138A00AF0B3FAD4F8CE
:1019A000800020B1D4F88000B0F1806F00D104E055
:1019B00040F2371131A00AF0A5FAD4F88400B0F152
:1019C000007F02D0D4F8840000B904E04FF49C7189
:1019D0002AA00AF097FAD4F8880020B1D4F8880039
:1019E000B0F1807F00D104E040F2391123A00AF069
:1019F00089FAD4F88C00B0F5001F02D0D4F88C001E
:101A000000B904E04FF49D711CA00AF07BFAD4F8F1
:101A1000900010B3D4F89000B0F5804F1DD0D4F8EA
:101A20009000B0F5004F18D0D4F89000B0F5404FBA
:101A300013D0D4F89000B0F5803F0ED0D4F89000C9
:101A4000B0F5A03F09D0D4F89000B0F5C03F04D065
:101A5000D4F89000B0F5E03F00D104E040F23B1133
:101A600006A00AF04FFAD4F89400802802D0D4F8E7
:101A7000940098B918E00000008793032E2E5C466E
:101A8000574C49425C7372635C73746D33326634D5
:101A900078375F6574682E63000000004FF49E7114
:101AA000AFF228000AF02EFAD4F89800402802D0AD
:101AB000D4F8980000B905E040F23D11AFF24400BF
:101AC0000AF020FAD4F89C0058B1D4F89C000828F9
:101AD00007D0D4F89C00102803D0D4F89C00182814
:101AE00000D105E04FF49F71AFF270000AF00AFADE
:101AF000D4F8A000042802D0D4F8A00000B905E072
:101B000040F23F11AFF28C000AF0FCF9D4F8A400C7
:101B1000B0F1007F02D0D4F8A40000B905E04FF482
:101B2000A071AFF2A8000AF0EDF9D4F8A800B0F562
:101B3000803F02D0D4F8A80000B905E040F241117E
:101B4000AFF2C8000AF0DEF9D4F8AC00B0F5003FFF
:101B500036D0D4F8AC00B0F5802F31D0D4F8AC003A
:101B6000B0F5002F2CD0D4F8AC00B0F5801F27D0F2
:101B7000D4F8AC00B0F5001F22D0D4F8AC00B0F51A
:101B8000800F1DD0D4F8AC00B0F1817F18D0D4F80C
:101B9000AC00B0F1827F13D0D4F8AC00B0F1847FF8
:101BA0000ED0D4F8AC00B0F1887F09D0D4F8AC00E6
:101BB000B0F1907F04D0D4F8AC00B0F1A07F00D198
:101BC00005E04FF4A171AFF24C100AF09BF9D4F884
:101BD000B000B0F5807F36D0D4F8B000B0F5007F0B
:101BE00031D0D4F8B000B0F5806F2CD0D4F8B0006C
:101BF000B0F5006F27D0D4F8B000B0F5805F22D0E8
:101C0000D4F8B000B0F5005F1DD0D4F8B000B0F14A
:101C1000012F18D0AB49D4F8B000884213D0AA499C
:101C2000D4F8B00088420ED0A849D4F8B000884259
:101C300009D0A749D4F8B000884204D0A549D4F807
:101C4000B000884200D105E040F24311AFF2D41059
:101C50000AF058F9D4F8B4001F2800D805E04FF472
:101C6000A271AFF2E8100AF04DF9D4F8B80090B1C3
:101C7000D4F8B800B0F5804F0DD0D4F8B800B0F566
:101C8000004F08D0D4F8B800B0F5404F03D0D4F8D6
:101C9000B800022800D105E040F24511AFF224203F
:101CA0000AF030F98C48056925F01C0501A802F0FE
:101CB00029FD029E8948864205D38948864202D280
:101CC00045F008051AE08648864205D385488642D5
:101CD00002D245F00C0511E08248864203D38248C7
:101CE000864200D20AE08048864205D37F48864279
:101CF00002D245F0040501E045F010057648056183
:101D00002068A0B30121384600F0D0F900F00400AB
:101D100070B34FF480520021384600F015FB18B91B
:101D2000002006B0BDE8F08100BF0098401C009084
:101D30000121384600F0BAF900F0200018B96C49CA
:101D400000988842F1D36A490098884201D1002066
:101D5000E7E7002000901F21384600F0A7F98046F1
:101D600008F0100028B14FF40060206203E00CE09E
:101D70001EE00020206208F0040010B10020606125
:101D800016E04FF48040606112E0206AC0F3CF009B
:101D90006169C1F34F0140EA01020021384600F0B9
:101DA000D3FA08B90020BCE76FF07F40FFF70FFCC3
:101DB000494805684F480540D4E901010843E168F6
:101DC00008432169084361690843A1690843E1693F
:101DD0000843216A0843616A0843A16A0843E16A2B
:101DE0000843216B0843616B084305433A4805608B
:101DF000D4E90E010843216C0843616C0843A16CCF
:101E00000843E16C0843216D0843616D0843324982
:101E10004860A06D8860E06DC860084685694FF62F
:101E200041700540B4F86010606E40EA0140A16E58
:101E30000843E16E0843216F0843616F084305437F
:101E400025488561D4E91E0108432349C8612A4811
:101E500085692A480540D4E920010843D4F8881050
:101E60000843D4F88C100843D4F890100843D4F8F1
:101E700094100843D4F898100843D4F89C100843F1
:101E8000D4F8A010084305431B488561D4E9290113
:101E90000843D4F8AC100843D4F8B0100843D4F881
:101EA000B41040EA8100D4F8B810084340F40000B0
:101EB000114908600846006840F080000860012071
:101EC0002FE70000000200010004000100080001EB
:101ED000001000010020000100800240002D3101AF
:101EE000C00E16020087930300E1F50580D1F008CB
:101EF000FFFF04000F8120FF00900240233FDEF827
:101F000070B504460D462CB1082C03D0102C01D01E
:101F1000182C00D104E04FF44E710CA009F0F2FF30
:101F20002879697940EA0126104820440664E87857
:101F30000006A97840EA0140697840EA0120297842
:101F400040EA010609482044466470BD2E2E5C46D6
:101F5000574C49425C7372635C73746D3332663400
:101F600078375F6574682E630000000000800240CF
:101F700010B5B0B001214FF0606002F03DFAFFF7FC
:101F80001BFB00F039F900BFFFF75AFB0128FBD01B
:101F900001A800F04BF901200190002008904FF4B7
:101FA00000700B9000200C900F90129014901590E0
:101FB000169021904FF00070229000112490002084
:101FC0002690279004202990C0052A9040122B903B
:101FD00080012C9040122D9040002F90002101A8EC
:101FE000FFF74EFBC4B2012C03D101210248FFF7D9
:101FF000A9F9204630B010BD4000010010B50446DC
:102000000CB1012C00D104E040F2892108A009F0B4
:1020100079FF34B10E48006840F004000C490860B4
:1020200005E00B48006820F004000949086010BD75
:102030002E2E5C46574C49425C7372635C73746D20
:102040003332663478375F6574682E6300000000B1
:102050000080024010B504460CB1012C00D104E010
:1020600040F2712108A009F04DFF34B10E4800681C
:1020700040F008000C49086005E00B48006820F0BB
:1020800008000949086010BD2E2E5C46574C494295
:102090005C7372635C73746D3332663478375F657A
:1020A00074682E630000000000800240F8B5064608
:1020B0000D46002400200090202E00DC04E04FF4A8
:1020C00009611CA009F01EFF1DB1012D01D01F2DBB
:1020D00000D104E040F6910116A009F013FF1D485D
:1020E000046904F01C044FF4784000EAC62004435D
:1020F0004FF4F86000EA8510044324F0020444F031
:1021000001041448046100BF0098401C009011486D
:10211000046904F0010018B10F4900988842F3D314
:102120000D490098884201D10020F8BD0948406956
:1021300080B2FAE72E2E5C46574C49425C737263BC
:102140005C73746D3332663478375F6574682E6300
:102150000000000000800240FFFF04001EB50021C7
:102160000022009201920292214A1268126802F043
:10217000004282B1002200921E4A526902F080029F
:1021800022B180221B4B5A6100229A609DE81C00FC
:1021900080E81C001EBD164A1268126802F4004254
:1021A000B2B9134A1268126802F4807282B1104AFE
:1021B0001268126802F4007252B10D4A1268126875
:1021C000C2F30D42111F0A4A12689268019200E0A0
:1021D00000210091064A12680292054A1268D268EC
:1021E000034B1A609DE81C0080E81C0000BFD1E78B
:1021F00020010020009002400348006840F00100E8
:1022000001490860704700000090024010B50120AD
:10221000FFF720FFFFF7EAF90120FFF7EFFE0120AB
:10222000FFF74EF90120FFF7C5F810BD012101604D
:10223000002141608160C16001614FF480414161D2
:1022400000218161C1614FF400610162002141629E
:102250008162C162016341638163C16340210164A2
:102260002021416400218164C1640165416581656B
:10227000C16501668021416600218166C1660167F2
:1022800041678167C1674FF08061C0F880104910D5
:10229000C0F884100021C0F888104FF40011C0F875
:1022A0008C100021C0F89010C0F89410C0F898105D
:1022B000C0F89C10C0F8A0104FF00071C0F8A41036
:1022C0004912C0F8A8108901C0F8AC104912C0F832
:1022D000B0100021C0F8B410C0F8B810704700006A
:1022E000014617480068006800F0004008B100206F
:1022F0007047C1F30C00124A126850601048006821
:10230000006840F040500E4A126810600C480068A7
:10231000006840F000400A4A1268106009484069AD
:1023200000F0040020B10420064A506100205060F3
:1023300003480068C068024A10600120D8E7000026
:102340001C01002000900240F8B506460D461746D5
:10235000002400200090202E00DC04E040F6BF01A5
:102360001BA009F0CFFD1DB1012D01D01F2D00D103
:1023700004E04FF40C6116A009F0C4FD1C48046988
:1023800004F01C044FF4784000EAC62004434FF4E4
:10239000F86000EA8510044344F0020444F00104AC
:1023A00013484761046100BF0098401C009010482A
:1023B000046904F0010018B10E4900988842F3D373
:1023C0000C490098884201D10020F8BD0120FCE7AB
:1023D0002E2E5C46574C49425C7372635C73746D7D
:1023E0003332663478375F6574682E63000000000E
:1023F00000800240FFFF040010B5044640F2F310D5
:1024000024EA000008B904B104E040F2EC5103A052
:1024100009F078FD0948046010BD00002E2E5C46CE
:10242000574C49425C7372635C73746D333266342B
:1024300078785F666C6173682E6300000C3C024024
:102440002DE9F04104460D46002709266CB3082CFF
:102450002BD0102C29D0182C27D0202C25D0282C7C
:1024600023D0302C21D0382C1FD0402C1DD0482C0C
:102470001BD0502C19D0582C17D0802C15D0882C5C
:1024800013D0902C11D0982C0FD0A02C0DD0A82CAC
:102490000BD0B02C09D0B82C07D0C02C05D0C82C3C
:1024A00003D0D02C01D0D82C00D104E040F2DB11B5
:1024B00026A009F027FD2DB1012D03D0022D01D05A
:1024C000032D00D104E04FF4EE7120A009F01AFDB5
:1024D0000DB9002709E0012D01D12F0205E0022DE1
:1024E00001D12F0201E04FF4407700F079F9064660
:1024F000092E28D11D48006820F440701B4908604F
:1025000008460068384308600846006820F0F80074
:1025100008600846006844F0020108431349086057
:102520000846006840F48030086000F059F906461B
:102530000E48006820F002000C4908600846006858
:1025400020F0F80008603046BDE8F0812E2E5C4691
:10255000574C49425C7372635C73746D33326634FA
:1025600078785F666C6173682E630000103C0240EF
:1025700009201349096801F48031B1F5803F01D188
:1025800001201CE00E49096801F0100109B1062084
:1025900015E00B49096801F4807109B102200EE0D1
:1025A0000749096801F0EF0109B1072007E0044974
:1025B000096801F0020109B1082000E00920704714
:1025C0000C3C024070B504462546002004F008FD8E
:1025D0000F48854218D802212820FFF731FF1E201E
:1025E00004F0FEFC02213020FFF72AFF3C2004F01B
:1025F000F7FC02213820FFF723FF5A2004F0F0FCFB
:10260000642004F0EDFC01E0012070BD0020FCE737
:102610000000060810B500F0D1F810BD2DE9F0411A
:1026200004460E4617460025A84600BF17E056F898
:10263000250080F055382068414600F071F80928DF
:102640000AD120680068404502D00220BDE8F08130
:102650002068001D206001E00120F7E76D1CBD42ED
:1026600003D2206802498842E1D90020EEE7000049
:10267000FBFF07080348006840F00040014908607C
:1026800070470000103C024070B504460D46092614
:10269000B4F1006F02D3B4F1016F05D31548844241
:1026A00003D31548844200D804E040F26A3113A0F5
:1026B00009F028FC00F094F80646092E17D11748B7
:1026C000006820F4407015490860084600680860FA
:1026D0000846006840F001000860257000F080F8AE
:1026E00006460E48006820F001000C49086030469C
:1026F00070BD00000078FF1F0F7AFF1F2E2E5C4672
:10270000574C49425C7372635C73746D3332663448
:1027100078785F666C6173682E630000103C02403D
:1027200070B504460D460926B4F1006F02D3B4F12A
:10273000016F05D31648844203D31648844200D85B
:1027400004E040F2163114A009F0DCFB00F048F878
:102750000646092E19D11848006820F44070164921
:1027600008600846006840F4007008600846006889
:1027700040F001000860256000F032F806460E487F
:10278000006820F001000C490860304670BD000070
:102790000078FF1F0F7AFF1F2E2E5C46574C4942D0
:1027A0005C7372635C73746D3332663478785F6621
:1027B0006C6173682E630000103C0240054800689D
:1027C00000F0004028B1044802490C390860034871
:1027D00008607047103C024023016745AB89EFCD8C
:1027E00008B509200090FFF7C3FE009002E0FFF754
:1027F000BFFE00909DF800000128F8D09DF8000071
:1028000008BD00B59DB00120079000200890012070
:1028100009900A9000200B900C900D9002200090DF
:1028200000200190042002900120039000200490D9
:10283000059006900E900F9010901020119000209F
:10284000129013901490159016904FF4805017909A
:102850000020189019901A90CDF86CD007A81C9001
:102860000EA800F049F80121002000F003F81DB087
:1028700000BD000070B504460D462CB1022C03D0FB
:10288000042C01D0062C00D104E040F20F1111A05D
:1028900009F038FB0DB1012D00D104E04FF488712F
:1028A0000CA009F02FFB55B1A000A0F1C0400068BA
:1028B00040F00101A000A0F1C040016009E0A000CB
:1028C000A0F1C04000680B490840A100A1F1C0413F
:1028D000086070BD2E2E5C46574C49425C73726393
:1028E0005C73746D3332663478785F66736D632E13
:1028F00063000000FEFF0F0010B50446206840B1E1
:102900002068022805D02068042802D02068062804
:1029100000D103E09F21C8A009F0F4FA606810B16B
:102920006068022800D103E0A021C3A009F0EAFA00
:10293000A06828B1A068042802D0A068082800D1A7
:1029400003E0A121BCA009F0DDFAE06810B1E06865
:10295000102800D103E0A221B7A009F0D3FA206922
:1029600018B12069B0F5807F00D103E0A321B2A0A7
:1029700009F0C8FA606918B16069B0F5004F00D17C
:1029800003E0A421ACA009F0BDFAA06918B1A069C8
:10299000B0F5007F00D103E0A521A7A009F0B2FAAD
:1029A000E06918B1E069B0F5806F00D103E0A621BD
:1029B000A1A009F0A7FA206A18B1206AB0F5006F4B
:1029C00000D103E0A7219CA009F09CFA606A18B12D
:1029D000606AB0F5805F00D103E0A82196A009F0FD
:1029E00091FAA06A18B1A06AB0F5005F00D103E0C7
:1029F000A92191A009F086FAE06A18B1E06AB0F561
:102A0000804F00D103E0AA218BA009F07BFA206B54
:102A100018B1206BB0F5002F00D103E0AB2186A0E8
:102A200009F070FA606B00680F2800D803E0AC2151
:102A300081A009F067FA606B40680F2800D803E0B6
:102A4000AD217DA009F05EFA606B806820B1606BFB
:102A50008068FF2800D803E0AE2177A009F052FA81
:102A6000606BC0680F2800D803E0AF2172A009F0A6
:102A700049FA606B00690F2800D803E0B0216EA00E
:102A800009F040FA606B40690F2800D803E0B121DB
:102A900069A009F037FA606B806970B1606B80697A
:102AA000B0F1805F09D0606B8069B0F1005F04D045
:102AB000606B8069B0F1405F00D103E0B2215EA09D
:102AC00009F020FAD4E901010843E16808432169CB
:102AD000084361690843A1690843E1690843216A21
:102AE0000843616A0843A16A0843E16A0843216B0D
:102AF000084321688900A1F1C0410860A068082846
:102B00000BD120688000A0F1C040006840F0400177
:102B100020688000A0F1C0400160606B0068616BBC
:102B2000496840EA0110616B896840EA0120616BE5
:102B3000898940EA0140616B098A40EA0150616B72
:102B4000097D40EA0160616B896908432168491C7D
:102B50008900A1F1C0410860E06AB0F5804F62D100
:102B6000A06B00680F2800D803E0D42132A009F040
:102B7000C9F9A06B40680F2800D803E0D5212EA02A
:102B800009F0C0F9A06B806820B1A06B8068FF28B5
:102B900000D803E0D62128A009F0B4F9A06B0069A1
:102BA0000F2800D803E0D72123A009F0ABF9A06BD0
:102BB00040690F2800D803E0D8211FA009F0A2F92E
:102BC000A06B806970B1A06B8069B0F1805F09D0A3
:102BD000A06B8069B0F1005F04D0A06B8069B0F198
:102BE000405F00D103E0D92113A009F08BF9A06B5D
:102BF0000068A16B496840EA0110A16B896840EA4E
:102C00000120A16B098A40EA0150A16B097D40EACD
:102C10000160A16B8969084321688900A1F1C04165
:102C2000C1F8040107E06FF0704120688000A0F156
:102C3000C040C0F8041110BD2E2E5C46574C4942CE
:102C40005C7372635C73746D3332663478785F667C
:102C5000736D632E630000002DE9FC4107460D46AD
:102C60000026002400200090019008205B490860A5
:102C700010204860402088600020C8604FF48060C9
:102C80000861084602F034F91020FDF717FD0446EC
:102C900014B12046BDE8FC815148008800044F492A
:102CA000086037204860402088600020C8604FF4EA
:102CB00080600861084602F01BF93720FDF7FEFC32
:102CC00004460CB12046E5E74FF0FF304549086067
:102CD00008204860302088600220C8600020086119
:102CE00001204861084601F0ABFE00203B49086026
:102CF00033204860402088600020C8604FF4806026
:102D00000861084602F0F4F83320FDF7D7FC0446CA
:102D10000CB12046BEE709E04FF4001001F02AFF95
:102D200020B102F0DFF84DF82600761C2E4800682E
:102D300040F22A6108400028EED0082001F01AFF76
:102D400028B1082001F0F4FD04242046A2E7022067
:102D500001F010FF28B1022001F0EAFD0224204614
:102D600098E7202001F006FF28B1202001F0E0FDC7
:102D7000062420468EE74FF4007001F0FBFE30B1D0
:102D80004FF4007001F0D4FD0724204682E740F2A2
:102D9000FF5001F0CDFD00980006009901F47F413D
:102DA00040EA0120009901F47F0140EA11200099D6
:102DB00040EA1160686001980006019901F47F41C2
:102DC00040EA0120019901F47F0140EA11200199B4
:102DD00040EA1160286020465CE70000C00900203E
:102DE0004C000020D4090020342C014010B50121F2
:102DF0001F2001F001FB10BD2DE9F04104460D46F6
:102E000000260027B046544884421DD053488442CF
:102E10001AD05348844217D05248844214D05248A2
:102E2000844211D0514884420ED0514884420BD084
:102E30005048844208D05048844205D04F488442CC
:102E400002D04F48844200D103E0CF214DA009F0C9
:102E500059F8288880B200B103E0D02149A009F0D8
:102E600051F8287940B12879012805D0287902281D
:102E700002D02879032800D103E0D12141A009F034
:102E800041F8E87928B1E879012802D0E8790228E8
:102E900000D103E0D2213BA009F034F8002657E02E
:102EA000012000FA06F7286800EA0708B8454ED165
:102EB00020687200032191408843206028797100C6
:102EC00088402168084320602879012802D02879A9
:102ED000022830D1687940B16879012805D0687935
:102EE000022802D06879032800D103E0E42125A05C
:102EF00009F008F8A0687200032191408843A0609F
:102F0000687971008840A1680843A060A87910B171
:102F1000A879012800D103E0EB211AA008F0F2FF04
:102F200061680120B040814361606168A879B04068
:102F300080B201436160E0687200032191408843E0
:102F4000E060E87971008840E1680843E060761C41
:102F5000102EA5D3BDE8F08100000240000402401D
:102F600000080240000C0240001002400014024021
:102F700000180240001C02400020024000240240D1
:102F8000002802402E2E5C46574C49425C73726307
:102F90005C73746D3332663478785F6770696F2E56
:102FA000630000002DE9F04106460D461446002757
:102FB000B846544886421DD0534886421AD05348DA
:102FC000864217D05248864214D05248864211D0C9
:102FD000514886420ED0514886420BD05048864216
:102FE00008D05048864205D04F48864202D04F480C
:102FF000864200D104E040F249214DA008F082FF52
:10300000EDB1012D1BD0022D19D0032D17D0042DA9
:1030100015D0052D13D0062D11D0072D0FD0082D5A
:103020000DD0092D0BD00A2D09D00B2D07D00C2D5A
:1030300005D00D2D03D00E2D01D00F2D00D104E0B1
:1030400040F24A213AA008F05DFFA4B3092C32D027
:103050008CB384B37CB374B3012C2CD02BD0022C52
:1030600029D028D027D0032C25D0042C23D022D03F
:1030700021D0052C1FD01ED0092C1CD0062C1AD014
:10308000092C18D0072C16D015D014D0082C12D02B
:1030900011D010D0092C0ED00DD00A2C0BD00AD094
:1030A0000B2C08D00C2C06D005D00D2C03D00F2CE7
:1030B00001D00C2C00D104E040F24B211CA008F000
:1030C00021FF6807C00E04FA00F7E91006F120009E
:1030D00050F821006907CA0E0F2191408843EA1079
:1030E00006F1200141F82200E91006F1200050F815
:1030F000210040EA0708E91006F1200040F821808D
:10310000BDE8F081000002400004024000080240D7
:10311000000C02400010024000140240001802405F
:10312000001C02400020024000240240002802400F
:103130002E2E5C46574C49425C7372635C73746D0F
:103140003332663478785F6770696F2E63000000F1
:1031500070B505460C4600262E4885421DD02E48E7
:1031600085421AD02D48854217D02D48854214D06B
:103170002C48854211D02C4885420ED02B488542E0
:103180000BD02B48854208D02A48854205D02A48D2
:10319000854202D02948854200D104E04FF4A47151
:1031A00027A008F0AFFE012C25D0022C23D0042C40
:1031B00021D0082C1FD0102C1DD0202C1BD0402C2F
:1031C00019D0802C17D0B4F5807F14D0B4F5007FCF
:1031D00011D0B4F5806F0ED0B4F5006F0BD0B4F5FC
:1031E000805F08D0B4F5005F05D0B4F5804F02D001
:1031F000B4F5004F00D104E040F2491110A008F0EE
:1032000081FE2869204008B1012600E000263046F2
:1032100070BD0000000002400004024000080240AF
:10322000000C02400010024000140240001802404E
:10323000001C0240002002400024024000280240FE
:103240002E2E5C46574C49425C7372635C73746DFE
:103250003332663478785F6770696F2E63000000E0
:1032600070B504460D46184884421DD01748844264
:103270001AD01748844217D01648844214D01648F2
:10328000844211D0154884420ED0154884420BD098
:103290001448844208D01448844205D0134884421C
:1032A00002D01348844200D104E04FF4DA7111A037
:1032B00008F028FEA8B200B104E040F2B5110DA05C
:1032C00008F020FE658370BD00000240000402404B
:1032D00000080240000C02400010024000140240AE
:1032E00000180240001C024000200240002402405E
:1032F000002802402E2E5C46574C49425C73726394
:103300005C73746D3332663478785F6770696F2EE2
:103310006300000070B504460D46184884421DD075
:10332000174884421AD01748844217D0164884425E
:1033300014D01648844211D0154884420ED0154846
:1033400084420BD01448844208D01448844205D0EB
:103350001348844202D01348844200D104E040F272
:103360009F1111A008F0CEFDA8B200B104E04FF407
:10337000D0710DA008F0C6FD258370BD000002408D
:103380000004024000080240000C0240001002400D
:103390000014024000180240001C024000200240BD
:1033A00000240240002802402E2E5C46574C494221
:1033B0005C7372635C73746D3332663478785F6704
:1033C00070696F2E630000002DE9F04107460C463E
:1033D00015461E46912008F05BFC384608F062FC5A
:1033E000922008F055FC381208F05CFC952008F09B
:1033F0004FFC204608F056FC962008F049FC2012AD
:1034000008F050FC932008F043FC284608F04AFCE2
:10341000942008F03DFC281208F044FC972008F0A6
:1034200037FC304608F03EFC982008F031FC3012A2
:1034300008F038FC00F0D4FFBDE8F08110B50121A0
:103440000020FEF733FEC0F38000024908700846F2
:10345000007810BD7000002070B5002402211148D2
:10346000FFF7FEFE012008F0CBFD02210D48FFF71B
:1034700051FF002511E0640004210A48FFF768FEAF
:1034800008B144F0010401210648FFF743FF012180
:103490000448FFF7E5FE681CC5B2202DEBDBE443D2
:1034A000204670BD00100240014600202B4A914288
:1034B00003D2B1F1006F00D34EE0294A914204D209
:1034C000264A914201D3082046E0264A914204D27E
:1034D000234A914201D310203EE0234A914204D274
:1034E000204A914201D3182036E0204A914204D26A
:1034F0001D4A914201D320202EE01D4A914204D260
:103500001A4A914201D3282026E01A4A914204D255
:10351000174A914201D330201EE0174A914204D24B
:10352000144A914201D3382016E0144A914204D241
:10353000114A914201D340200EE0114A914204D237
:103540000E4A914201D3482006E00E4A914203D22E
:103550000B4A914200D35020704700000040000801
:103560000080000800C000080000010800000208F8
:1035700000000408000006080000080800000A080F
:1035800000000C0800000E080348007808B1012074
:1035900070470020FCE70000080100200146486950
:1035A000806880B2704708B50146D1F8CC00006849
:1035B00000900098C0F3414008BD024602F29B30E3
:1035C000405C7047024602F5547050F82100704785
:1035D00070B504460E4600250021C4F8101300BF44
:1035E0000BE0002104F5457040F825103C3040F810
:1035F00025103C304155681CC5B20F2DF1DB082168
:10360000A4F8B2133146204606F06EFF204606F0BD
:1036100075FB204606F034FA0121204606F0D0FF63
:10362000204606F0C6FA204606F0C1FB002070BD19
:103630000146D1F81003704710B50446204606F045
:1036400032FF002010BD70B504460D46002104F283
:103650009B304155113000EB451041612946204611
:1036600006F0D0FD70BD10B5202008F011FB01F070
:10367000C7F8C4B204F0F704204608F013FB10BDED
:1036800008B54FF478406423C822114600904FF4E7
:1036900096700CF098FA00BFFEE7000070B5054682
:1036A0000C4620460CF070FE284610F04FFB2846D2
:1036B00010F03CFC002203490348006810F032FC83
:1036C00070BD0000E9370008080000200146487876
:1036D000704770B50446254668880DF041F970BD05
:1036E0002DE9FC4107460D46164600244FF40A70AA
:1036F0000CF0B8FE04469CB92548008824302449C3
:10370000088024A026A100234FF6FF72CDE9001007
:103710001F4801882A4800880CF01CFB03F038FC85
:10372000022020602868C4F80C02C4F8106200204F
:10373000C4F81402C4F8180222462249384610F090
:10374000F1FB002020490860FEF764FF1F48FEF7E8
:1037500039FF1E481E490860324629463846D4F8CB
:10376000143200F0DFF80BA01AA100234FF6FF720D
:10377000CDE9001006480188114800880CF0EAFAEB
:10378000034800882430024908800020BDE8FC81FD
:1037900012000020736F6E6732342E7A6B000000C7
:1037A0003E20D2D4CCABCDF8C9FDBCB6B3F6B4ED57
:1037B000C1CBA1A3B4EDCEF3B4FAC2EBA3BA3500EA
:1037C00010000020D13A00080C0000200000020880
:1037D000040000203E20D5FDD4DAD0B4C8EBCEC41E
:1037E000BCFE2E2E2E0000002DE9FC5F82468B468B
:1037F00014461F46DDF8309010F086FB8046B8F185
:10380000000F13D12948008824302849088028A0B7
:103810002AA100234FF6FF72CDE90010234801884A
:103820002E4800880CF096FA03F0B2FB00222C49D7
:10383000404610F051FA06469EB11C4800882430DC
:103840001A4908801AA027A100234FF6FF72CDE97C
:10385000001016480188214800880CF07BFA03F01C
:1038600097FB6068FFF732FF0546022D13D00F4823
:10387000008824300D4908800DA022A100234FF6B6
:10388000FF72CDE9001009480188144800880CF047
:1038900061FA03F07DFB4A4639464046FFF720FFB8
:1038A00020460DF069FABDE8FC9F000012000020E0
:1038B000736F6E6732342E7A6B0000003E20D2D4D4
:1038C000CCABCDF8C9FDBCB6B3F6B4EDC1CBA1A36A
:1038D000B4EDCEF3B4FAC2EBA3BA36001000002068
:1038E000F27B01083E20D2D4CCABCDF8C9FDBCB6EA
:1038F000B3F6B4EDC1CBA1A3B4EDCEF3B4FAC2EBF1
:10390000A3BA37003E20D2D4CCABCDF8C9FDBCB6AB
:10391000B3F6B4EDC1CBA1A3B4EDCEF3B4FAC2EBD0
:10392000A3BA38002DE9FE4380460D4616461F46D1
:10393000042102A800F053F8B9B202A800F046F83A
:103940000322042100200DF011F804469CB912480E
:10395000008824301049088010A013A100234FF6DE
:10396000FF72CDE900100C480188174800880CF060
:10397000F1F903F00DFB606802990160B3B22A46C9
:103980002146404610F0F2FA814620460DF0F4F947
:103990004846BDE8FE83000012000020736F6E678A
:1039A00032342E7A6B0000003E20D2D4CCABCDF85E
:1039B000C9FDBCB6B3F6B4EDC1CBA1A3B4EDCEF353
:1039C000B4FAC2EBA3BA31001000002070B504466F
:1039D0000D46264628460AF0F2FF708070BD002290
:1039E00002704170704700007CB5452510F08CFADC
:1039F0001E4908600846006898B91D4800882430B0
:103A00001B4908801BA01EA100234FF6FF72CDE9C1
:103A1000001017480188224800880CF09BF903F039
:103A2000B7FAAAB21F491148006810F055F90446C8
:103A300034B900221C490D48006810F073FA13E0F5
:103A40000B48008824300A4908800AA017A10023E7
:103A50004FF6FF72CDE90010054801881048008834
:103A60000CF078F903F094FA7CBD00000800002007
:103A700012000020736F6E6732342E7A6B000000E4
:103A80003E20D2D4CCABCDF8C9FDBCB6B3F6B4ED74
:103A9000C1CBA1A3B4EDCEF3B4FAC2EBA3BA390003
:103AA00010000020F27B0108E93700083E20D2D444
:103AB000CCABCDF8C9FDBCB6B3F6B4EDC1CBA1A378
:103AC000B4EDCEF3B4FAC2EBA3BA3130000000007B
:103AD0002DE9F047ADF5067D06460F46144698469B
:103AE000DDF838A235464FF0000960892189884207
:103AF00013D07D48008824307B4908807BA07EA1BC
:103B000000234FF6FF72CDE9001077480188824804
:103B100000880CF01FF903F03BFA608904287DDD72
:103B20006068FFF7D6FDD5F81412491C884275D19C
:103B30006089001F82B2042306A920460DF0CFF849
:103B40006089001F754909680844744908606189E3
:103B5000081FC11700EB9171C1F38F096189081F1C
:103B6000C11700EB91718910A0EB810119B109F126
:103B700001001FFA80F94A4606A96948FEF74EFD82
:103B800020B101283AD0022862D14DE06548006892
:103B9000401C64490860084600681E21B0FBF1F231
:103BA00001FB120048BB60480088401D5E49088048
:103BB0004EA05EA100234FF6FF72CDE900104A48E7
:103BC00001885B4800880CF0C5F8594800880C3023
:103BD000574908805448028856A103A810F0C4FA37
:103BE00042A003A900234FF6FF72CDE900103E4822
:103BF00001884F4800880CF0ADF829E03A48008869
:103C000024303949088039A04CA100234FF6FF72B7
:103C1000CDE90010344801883F4800E026E00088E4
:103C20000CF098F803F0B4F92F48008824302E499E
:103C300008802EA049A100234FF6FF72CDE90010A5
:103C400029480188344800880CF084F803F0A0F972
:103C500000BFD5F81402401CC5F814026089001F8B
:103C6000D5F818120844C5F818020CE06068FFF790
:103C700030FDD5F81412491C884204D1D5F814023D
:103C8000401CC5F81402524641463846D5F8143255
:103C9000FFF748FE6089B0F5017F1CDA29463846F7
:103CA000FFF7FCFC20460DF067F810A033A10023BD
:103CB0004FF6FF72CDE900100B4801881C480088C0
:103CC0000CF048F808480088243007490880012093
:103CD0002C49087006E020460DF04EF80DF5067DE3
:103CE000BDE8F08700BFF9E712000020736F6E6730
:103CF00032342E7A6B0000003E20D2D4CCABCDF80B
:103D0000C9FDBCB6B3F6B4EDC1CBA1A3B4EDCEF3FF
:103D1000B4FAC2EBA3BA3200100000200C0000205D
:103D200004000020180000201E0000202D000000CC
:103D30001C00002025336425250000003E20D2D43D
:103D4000CCABCDF8C9FDBCB6B3F6B4EDC1CBA1A3E5
:103D5000B4EDCEF3B4FAC2EBA3BA33003E20D2D412
:103D6000CCABCDF8C9FDBCB6B3F6B4EDC1CBA1A3C5
:103D7000B4EDCEF3B4FAC2EBA3BA3400313030253F
:103D800000000000140000201CB50121022000F0FA
:103D900033FB4FF48070009003208DF80500012064
:103DA0008DF8040000208DF806008DF807006946A4
:103DB0000948FFF721F84FF480710748FFF750FAE0
:103DC00000200649088006490880064908800649FF
:103DD0000880064908701CBD000402404000002015
:103DE0003E00002042000020440000203C00002053
:103DF0001CB50121102000F0FFFA102000900320D4
:103E00008DF8050001208DF8040000208DF80600D3
:103E10008DF8070069461148FEF7EEFF012000907B
:103E200069460E48FEF7E8FF0820009069460B48F7
:103E3000FEF7E2FF0120009069460848FEF7DCFF2C
:103E400010210648FFF70CFA01210448FFF708FA91
:103E500008210248FFF704FA1CBD000000100240D0
:103E600010B500F02DF810BD1CB50121022000F0A6
:103E7000C3FA2020009003208DF8050001208DF862
:103E8000040000208DF806008DF8070069460448FC
:103E9000FEF7B2FF20210248FFF73CFA1CBD0000EC
:103EA0000004024010B5FFF76FFFFFF7A1FF10BD40
:103EB00010B500F05FF9FEF799FFFCF7D5FA10BDD9
:103EC0001CB50121102000F097FA0120009003207A
:103ED0008DF8050001208DF8040000208DF8060003
:103EE0008DF8070069460D48FEF786FF0220009016
:103EF00069460A48FEF780FF0420009000208DF8F4
:103F0000040069460548FEF777FF01210348FFF7E3
:103F1000A7F902210148FFF7FDF91CBD001002407E
:103F200010B5882007F0B4FE092007F0BBFE012081
:103F300008F05BF8892007F0ABFE012007F0B2FE25
:103F40000A2008F052F802F0F5FD102007F0A0FE5C
:103F50000F2007F0A7FE012008F047F8042007F023
:103F600097FE822007F09EFE012008F03EF8142004
:103F700007F08EFE632007F095FE152007F088FEFF
:103F8000002007F08FFE162007F082FE032007F0C6
:103F900089FE172007F07CFE032007F083FE18201F
:103FA00007F076FE0B2007F07DFE012008F01DF8DB
:103FB000192007F06DFEDF2007F074FE1A2007F0CD
:103FC00067FE012007F06EFE1B2007F061FE1F2038
:103FD00007F068FE1C2007F05BFE002007F062FE81
:103FE0001D2007F055FE162007F05CFE1E2007F08E
:103FF0004FFE002007F056FE1F2007F049FE01206B
:1040000007F050FE012007F0F0FF302007F040FEDF
:10401000002007F047FE312007F03AFE002007F0AD
:1040200041FE342007F034FE1F2007F03BFE352010
:1040300007F02EFE032007F035FE012007F0D5FF24
:1040400040F2DF13002240F21F311046FCF751F915
:10405000FFF709FBFCF7FFFA00F07CF8FDF727F902
:1040600000F09EF900F0ABF9012000F075F9002492
:1040700007E0012007F0B9FFE0B200F080F9601C12
:1040800084B2FF2CF5DD10BD10B500F0AFFB044687
:10409000E0B210BD10B500241F210020FEF706F885
:1040A000044604F0100030B10E48006840F400608F
:1040B0000C49086005E00B48006820F400600949DD
:1040C000086004F0040030B10648006820F4804025
:1040D0000449086005E00348006840F48040014955
:1040E000086010BD0080024001B5124900980968BF
:1040F000401AFA2804D30F4900980860FFF7CAFF56
:104100000D4900980968401AFA2804D30A49009812
:1041100008600FF04DFD094900980968401A41F206
:104120008831884204D305490098086009F038FABC
:1041300008BD00006C000020640000206800002022
:1041400010B5024809F0D8FA10BD0000782200200E
:1041500000BFFEE710B58E2007F09AFD00F050FB7F
:10416000C4B244F08004204607F09CFD00F038F90A
:1041700010BD704710B54FF4A06000F063F810BD9B
:104180002DE9F0410446002500270F26E07810B104
:10419000E078012800D103E08D2122A007F0B2FED3
:1041A0006078102800DA03E08E211EA007F0AAFE36
:1041B000A078102800DA03E08F211AA007F0A2FEF1
:1041C000E07818B31C48006800F4E060C0F5E060D7
:1041D000C0F30725C5F10400C7B22E416078B8408E
:1041E000C5B2A078304005432807050E1348217852
:1041F0004554207800F01F010120884021784911A2
:10420000890001F1E021C1F8000109E0207800F007
:104210001F01012088400A492278521141F82200EA
:10422000BDE8F0812E2E5C46574C49425C737263A8
:104230005C6D6973632E63000CED00E000E400E048
:1042400080E100E010B50446B4F5E06F0BD0B4F5A2
:10425000C06F08D0B4F5A06F05D0B4F5806F02D060
:10426000B4F5407F00D103E0792104A007F04AFEB5
:10427000074820430749086010BD00002E2E5C4609
:10428000574C49425C7372635C6D6973632E6300C3
:104290000000FA050CED00E010B5002807DA0A0767
:1042A000140E054A00F00F031B1FD45403E00A0745
:1042B000130E024A135410BD18ED00E000E400E0B4
:1042C00070B504460D46B4F1005F02D0B4F1006F42
:1042D00000D103E0B72109A007F014FE0C48854285
:1042E00000D203E0B82105A007F00CFE094905EA59
:1042F000010020430849086070BD00002E2E5C4676
:10430000574C49425C7372635C6D6973632E630042
:10431000FFFF0F0080FFFF1F08ED00E010B502480F
:1043200004F0F8FF10BD0000A822002010B50848D6
:10433000006800F0004028B14FF480710548FEF796
:10434000E9FF04E04FF480710248FEF789FF10BDD9
:10435000340000200004024070B5054605F00F0649
:104360008A2007F095FC00F04BFAC4B204F0F00488
:104370003443204607F096FC00F032F870BD10B5CB
:1043800004468A2007F084FC882007F08BFC8B20F1
:1043900007F07EFC204607F085FC00F021F810BDF8
:1043A00010B58A2007F074FC00F02AFAC4B244F079
:1043B0008004204607F076FC00F012F810BD10B51E
:1043C0008A2007F065FC00F01BFAC4B204F0EF0489
:1043D000204607F067FC00F003F810BD70470000AE
:1043E00010B500BF40210348FEF7B2FE0028F9D007
:1043F00010BD0000000C024070B504460D46104888
:10440000204008B904B104E040F2F9510DA007F0D2
:1044100079FD0DB1012D00D104E040F2FB5109A05E
:1044200007F070FD2DB10F48006820430D4908606A
:1044300004E00C480068A0430A49086070BD000011
:1044400000E80B812E2E5C46574C49425C73726328
:104450005C73746D3332663478785F7263632E6395
:10446000000000003038024070B504460D46104888
:10447000204008B904B104E04FF4D8610DA007F062
:1044800041FD0DB1012D00D104E040F2C16109A050
:1044900007F038FD2DB10F48006820430D49086032
:1044A00004E00C480068A0430A49086070BD0000A1
:1044B00000E81FDD2E2E5C46574C49425C73726348
:1044C0005C73746D3332663478785F7263632E6325
:1044D000000000001038024070B504460D4624F07C
:1044E000010008B904B104E040F235610CA007F006
:1044F00009FD0DB1012D00D104E040F2366108A0A4
:1045000007F000FD2DB10E48006820430C490860FB
:1045100004E00B480068A0430949086070BD000032
:104520002E2E5C46574C49425C7372635C73746D0B
:104530003332663478785F7263632E630000000064
:104540003838024070B504460D461048204008B97E
:1045500004B104E040F269610DA007F0D3FC0DB195
:10456000012D00D104E040F26A6109A007F0CAFC05
:104570002DB10F48006820430D49086004E00C4845
:104580000068A0430A49086070BD000000360109B8
:104590002E2E5C46574C49425C7372635C73746D9B
:1045A0003332663478785F7263632E6300000000F4
:1045B0004038024070B504460D461048204008B906
:1045C00004B104E040F227710DA007F09BFC0DB18F
:1045D000012D00D104E04FF4E56109A007F092FC41
:1045E0002DB10F48006820430D49086004E00C48D5
:1045F0000068A0430A49086070BD00000036010948
:104600002E2E5C46574C49425C7372635C73746D2A
:104610003332663478785F7263632E630000000083
:104620002038024070B504460D461048204008B9B5
:1046300004B104E040F296610DA007F063FC0DB1F7
:10464000012D00D104E040F2976109A007F05AFC67
:104650002DB10F48006820430D49086004E00C4864
:104660000068A0430A49086070BD0000CC8088FB48
:104670002E2E5C46574C49425C7372635C73746DBA
:104680003332663478785F7263632E630000000013
:104690004438024070B504460D461048204008B921
:1046A00004B104E04FF4EA610DA007F02BFC0DB15A
:1046B000012D00D104E040F2517109A007F022FC65
:1046C0002DB10F48006820430D49086004E00C48F4
:1046D0000068A0430A49086070BD0000CC8688FBD2
:1046E0002E2E5C46574C49425C7372635C73746D4A
:1046F0003332663478785F7263632E6300000000A3
:1047000024380240F0B500210022002402250026B2
:104710000223324F3F6807F00C0121B1042905D074
:10472000082937D105E02E4F076036E02D4F07608E
:1047300033E02A4F3F1F3F68C7F38056274F3F1F84
:104740003F6807F03F036EB1264FB7FBF3F7DFF882
:104750008CC0ACF1040CDCF800C0CCF3881C07FB67
:104760000CF40CE01E4FB7FBF3F7DFF870C0ACF1B0
:10477000040CDCF800C0CCF3881C07FB0CF4174FCA
:104780003F1F3F68C7F301477F1C7D00B4FBF5F76F
:10479000076002E0124F076000BF00BF0F4F3F6885
:1047A00007F0F0010909104F7A5C0768D7404760AD
:1047B0000A4F3F6807F4E051890A0B4F7A5C47685B
:1047C000D7408760054F3F6807F46041490B064FAB
:1047D0007A5C4768D740C760F0BD000008380240E7
:1047E0000024F40040787D010A01002010B5002467
:1047F00002480488FFF7F4FD204610BD0000026067
:1048000010B500244FF0C0400488FFF7E9FD2046B2
:1048100010BD00007CB505460024002000900190EA
:1048200000F078FA00F0007010B10E2420467CBD34
:104830003D49098888B26946FEF70EFA04460CB174
:104840002046F4E7012D36D1019800F4802000289D
:104850002ED035480088000434490860372048606D
:10486000402088600020C860A8020861084600F067
:104870003FFB3720FBF722FF04460CB12046D6E76A
:1048800002202A49086006204860402088600020F5
:10489000C8604FF480600861084600F029FB0620DC
:1048A000FBF70CFF04460CB12046C0E72046BEE7EC
:1048B00025242046BBE7019800F4803078B31A48DD
:1048C000008800041949086037204860402088604B
:1048D0000020C8604FF480600861084600F008FBC3
:1048E0003720FBF7EBFE04460CB120469FE7002083
:1048F0000E49086006204860402088600020C8609B
:104900004FF480600861084600F0F2FA0620FBF7D9
:10491000D5FE04460CB1204689E7204687E7FFE72D
:104920002524204683E700004C000020C009002019
:1049300010B504460648204008B904B104E040F22E
:10494000933104A007F0DEFA0A48046010BD0000AD
:1049500000F83FFF2E2E5C46574C49425C73726351
:104960005C73746D3332663478785F7364696F2E6C
:1049700063000000382C014010B504460648204072
:1049800008B904B104E040F2DE3104A007F0BAFA3D
:104990000A48046010BD000000F83FFF2E2E5C4660
:1049A000574C49425C7372635C73746D3332663486
:1049B00078785F7364696F2E63000000382C0140C3
:1049C00010B504460CB1012C00D104E040F25111A5
:1049D00002A007F097FA0948046010BD2E2E5C462D
:1049E000574C49425C7372635C73746D3332663446
:1049F00078785F7364696F2E63000000A0802542A1
:104A000010B504460CB1012C00D104E04FF4417103
:104A100002A007F077FA0948046010BD2E2E5C460C
:104A2000574C49425C7372635C73746D3332663405
:104A300078785F7364696F2E630000008C8525426F
:104A400070B5044600256068B0F1007F00D204E034
:104A50004FF4FE7135A007F055FAA06848B3A0687E
:104A6000102826D0A068202823D0A068302820D085
:104A7000A06840281DD0A06850281AD0A0686028DF
:104A800017D0A068702814D0A068802811D0A06822
:104A900090280ED0A068A0280BD0A068B02808D01D
:104AA000A068C02805D0A068D02802D0A068E0285F
:104AB00000D104E040F2FD111CA007F023FAE068E9
:104AC00010B1E068022800D104E04FF4FF7117A094
:104AD00007F018FA2069042801D0206900B904E021
:104AE00040F2FF1111A007F00DFA6069012801D012
:104AF000606900B904E04FF400710CA007F002FAFD
:104B0000124920680860091D60680860081D056872
:104B100025F0F705D4E902010843216908436169DA
:104B20000843054309480830056070BD2E2E5C46D9
:104B3000574C49425C7372635C73746D33326634F4
:104B400078785F7364696F2E63000000242C014045
:104B500010B50121C802FFF79DFD00214FF4006050
:104B6000FFF798FD10BD000001480068C0B2704713
:104B7000102C014070B504460025012C3DD0022CBC
:104B80003BD0042C39D0082C37D0102C35D0202C19
:104B900033D0402C31D0802C2FD0B4F5807F2CD056
:104BA000B4F5007F29D0B4F5806F26D0B4F5006F3E
:104BB00023D0B4F5805F20D0B4F5005F1DD0B4F5EC
:104BC000804F1AD0B4F5004F17D0B4F5803F14D001
:104BD000B4F5003F11D0B4F5802F0ED0B4F5002FFE
:104BE0000BD0B4F5801F08D0B4F5001F05D0B4F584
:104BF000800F02D0B4F5000F00D104E04FF45C71D7
:104C000005A007F07FF90C480068204008B1012595
:104C100000E00025284670BD2E2E5C46574C4942C8
:104C20005C7372635C73746D3332663478785F736F
:104C300064696F2E63000000342C014070B5044697
:104C40000025012C3DD0022C3BD0042C39D0082C5F
:104C500037D0102C35D0202C33D0402C31D0802CA4
:104C60002FD0B4F5807F2CD0B4F5007F29D0B4F5D7
:104C7000806F26D0B4F5006F23D0B4F5805F20D0CC
:104C8000B4F5005F1DD0B4F5804F1AD0B4F5004FD5
:104C900017D0B4F5803F14D0B4F5003F11D0B4F56F
:104CA000802F0ED0B4F5002F0BD0B4F5801F08D0A4
:104CB000B4F5001F05D0B4F5800F02D0B4F5000F95
:104CC00000D104E04FF46F7105A007F01BF90C4808
:104CD0000068204008B1012500E00025284670BD8D
:104CE0002E2E5C46574C49425C7372635C73746D44
:104CF0003332663478785F7364696F2E6300000026
:104D0000342C01400248006800F0030070470000A6
:104D1000002C014038B50446002000902CB1042C32
:104D200003D0082C01D00C2C00D104E04FF4EB711F
:104D300004A007F0E7F80B482044009000980068B2
:104D400038BD00002E2E5C46574C49425C7372639E
:104D50005C73746D3332663478785F7364696F2E78
:104D600063000000142C014010B500F06FFE10BD70
:104D700070B504460D4604F07F4008B904B104E064
:104D800040F23E310CA007F0BDF80DB1012D00D16D
:104D900004E040F23F3108A007F0B4F82DB10E480E
:104DA000006820430C49086004E00B480068A043F9
:104DB0000949086070BD00002E2E5C46574C4942E0
:104DC0005C7372635C73746D3332663478785F73CE
:104DD00064696F2E630000003C2C014070B50446EE
:104DE0000025206818B12068B0F5005F00D104E00C
:104DF0004FF48E7125A007F085F8606818B16068DF
:104E0000B0F5806F00D104E040F21D111FA007F043
:104E100079F8A06818B1A068B0F5007F00D104E06F
:104E20004FF48F7119A007F06DF8E06838B1E068B1
:104E3000B0F5006F03D0E068B0F5805F00D104E00A
:104E400040F21F1111A007F05DF8206918B1206928
:104E5000B0F5804F00D104E04FF490710BA007F043
:104E600051F81248056847F6FF608543207DA16828
:104E7000084361680843E1680843216808432169E1
:104E8000084305430948056070BD00002E2E5C46AE
:104E9000574C49425C7372635C73746D3332663491
:104EA00078785F7364696F2E63000000042C014002
:104EB00008B531208DF8000000208DF801008DF834
:104EC000020001208DF803006846FFF759F93B20E6
:104ED0008DF8000001208DF801006846FFF750F9B9
:104EE00008BD00000148006870470000802C0140A8
:104EF00070B5044600256068402800D204E04FF4F5
:104F0000CA7120A006F0FEFFA06828B1A068402862
:104F100002D0A068C02800D104E040F2951119A089
:104F200006F0F0FFE06838B1E068B0F5807F03D0AC
:104F3000E068B0F5007F00D104E04FF4CB7111A020
:104F400006F0E0FF2069B0F5806F01D0206900B95C
:104F500004E040F297110BA006F0D4FF114920683D
:104F60000860081D05686FF30A05D4E901010843CC
:104F7000E16808432169084305430A48001D0560AC
:104F800070BD00002E2E5C46574C49425C73726324
:104F90005C73746D3332663478785F7364696F2E36
:104FA00063000000082C014010B504460CB1032C2E
:104FB00000D104E040F2611102A006F0A3FF09480D
:104FC000046010BD2E2E5C46574C49425C737263E0
:104FD0005C73746D3332663478785F7364696F2EF6
:104FE00063000000002C014008B50120009008215A
:104FF0000448FEF7ADF808B1002000909DF80000CD
:1050000008BD00000000024070B50446002520489D
:105010000068032802D12725284670BD1C48006877
:1050200038B11B480068012803D0194800680228DD
:105030002CD1B4F5805F02D127252846EDE7B4F5E1
:10504000006F13D10120FFF7E5FB0546F5B90020FD
:10505000104908750860486088604FF40060C860B7
:10506000002008610846FFF7B9FE0FE00020FFF7B7
:10507000D1FB054655B9002006490875086048600F
:105080008860C86008610846FFF7A8FE2846C4E7A4
:1050900048000020A80900202DE9F04788B0054607
:1050A0000F464FF001084FF000094FF0030A2B4A5A
:1050B00007CA05AB07C30024002629A02BA10023A3
:1050C0004FF6FF72CDE90010394628460AF042FE3D
:1050D00005F1D80085B2FDF771FBF320FDF78CF9DF
:1050E00000BF23E005A951F82400FEF7DDF9814651
:1050F00002214846FDF7A4F9092802D04FF0000824
:1051000016E006F11E00C6B232461DA102A80FF03D
:105110002BF813A002A900234FF6FF72CDE900106F
:10512000394628460AF016FE601CC4B2032CD9DBAF
:1051300000BF4FF4FA7006F058FF09A012A1002337
:105140004FF6FF72CDE90010394628460AF002FEFC
:10515000FDF790FA404608B0BDE8F087904401089A
:10516000736F6E6732342E7A6B0000003E20D5FDDF
:10517000D4DAB2C1B3FD666C6173682E2E2E0000C6
:105180002533642525000000313030250000000063
:10519000F0B5014600200022BC4B1B7881F8563048
:1051A000BB4B1B88A1F85430BA4B1B681A0E9309ED
:1051B0000B70C2F383034B7002F003038B70B54B8B
:1051C0001B68C3F30742CA70B24B1B88C3F30722A4
:1051D0000A71B04B1A784A715B681A0E1301CB80C2
:1051E000AC4B5B68C3F30742CB8843EA1213CB8016
:1051F00002F00F030B72A74B9B88C3F30722D3095E
:105200004B72C2F380138B72C2F34013CB72C2F3A2
:1052100000130B7300234B739C4B1B681BB19B4B00
:105220001B68012B4FD193071B0D0B61994B1A790A
:105230000B6943EA82030B61964B9B681A0E0B695C
:1052400043EA92130B61C2F3C2030B7502F007032A
:105250004B75904B9B68C3F3074253098B75C2F3A0
:105260008203CB7593075B0F0B768A4B1B89C3F3C5
:1052700007220B7E43EAD2130B760B695B1C0024DA
:10528000C1E912340B7ED1E912649B1C012505FA99
:1052900003F3DF17A6FB035C04FB03C306FB073322
:1052A000C1E912530C7A0123A3400B650027D1E911
:1052B00012560B6DA5FB034C06FB03C305FB07331E
:1052C000C1E912432DE0714B1B68022B29D1714BB0
:1052D0001A7993069B0A0B616E4B9B681A0E0B6939
:1052E00043EA02230B616B4B9B68C3F307420B69D4
:1052F00013430B61674B1B89C3F307220B695B1CCC
:105300004FF40074A3FB04344FF480660025A3FB24
:10531000067C04FB06C403FB0543C1E9127373104A
:105320000B65C2F3801301F8193F93065B0E4B70B7
:10533000584B1A7A4B7843EAD2134B7002F07F0332
:105340008B70544BDB681A0ED309CB70C2F3411338
:105350000B71C2F382034B7193071B0F8B714D4B83
:10536000DB68C3F307428B7943EA92138B71C2F374
:105370004013CB7100230B7202F001034B72454BBB
:105380009B89C3F30722D3098B72C2F38013CB72BC
:10539000C2F340130B73C2F300134B73C2F38103C8
:1053A0008B7302F00303CB733A4B1A7B53080B74D5
:1053B00001234B74384B1B681A0ECA741939364BCB
:1053C0001B68C3F307421402CC85334B1B88C3F31D
:1053D0000722CB8D1343CB852F4B1A7814060C6311
:1053E0005B681A0E0B6B43EA02440C632A4B5B6842
:1053F000C3F307420B6B43EA02240C63264B9B88E2
:10540000C3F307220B6B13430B63234B1A7934232B
:105410005A54214B9B681A0E35235A541E4B9B68D5
:10542000C3F3074214068C631B4B1B89C3F307228B
:105430008B6B43EA02448C63174B1A7A8B6B43EAFB
:1054400002248C63144BDB681A0E8B6B13438B6343
:10545000114BDB68C3F307423C235B5C43EA121445
:105460003C235C5413071C0DCC870B4B9B89C3F367
:105470000722CB8F1343CB87074B1A7B540840235B
:105480005C54012441235C54F0BD0000480000201E
:105490004C000020200900203009002008B5002021
:1054A0000090FFF7A1FD012809D1684600F08AFCB1
:1054B00008B1FF2008BD0098C0F34320FAE7FF20A1
:1054C000F8E710B50424FFF7E9FF0446042C01D1E6
:1054D000002010BDFF2C01D10220FAE70120F8E7DF
:1054E00008B500200090FFF7E3FC00F069F9FFF732
:1054F0002FFB00F0C7F900909DF8000010B19DF857
:10550000000008BD00F030F800909DF8000010B1D8
:105510009DF80000F5E70020114908750860486013
:105520008860C86008610846FFF758FC0D48FFF71F
:105530002FFE00909DF8000030B90A49B1F85410D0
:10554000080400F025FC00909DF8000020B94FF4FD
:105550000060FFF759FD00909DF80000D1E70000C2
:10556000A80900205009002038B50024012000902F
:10557000FFF7C8FB10B92524204638BD4448006811
:10558000042828D000204349086002204860C02039
:1055900088600020C8604FF4806008610846FFF70B
:1055A000A7FCFBF725F904460CB12046E5E70020EF
:1055B000FFF7B0FB384908600420FFF7ABFB364922
:1055C00048600820FFF7A6FB334988600C20FFF7EE
:1055D000A1FB3149C8602E48006858B12C480068CA
:1055E000012807D02A480068062803D02848006808
:1055F000022816D100202749086003204860402077
:1056000088600020C8604FF4806008610846FFF79A
:105610006FFC69460320FBF72DF904460CB12046C8
:10562000ABE71B48006804282ED0BDF800001B49DA
:105630000860BDF8000000041649086009204860B1
:10564000C02088600020C8604FF480600861084670
:10565000FFF74EFCFBF7CCF804460CB120468CE774
:105660000020FFF757FB0E4908600420FFF752FBAC
:105670000B4948600820FFF74DFB094988600C2062
:10568000FFF748FB0649C8600024204675E7000084
:1056900048000020C0090020300900204C000020F4
:1056A0002009002030B58FB005460C464FF0FA5166
:1056B0001D48FBF7A9F900211B48FBF729FA1A48F6
:1056C000FBF796FA4FF000600090184801900295A1
:1056D00000200390049405904FF4806006908000B1
:1056E000079080000890002009904FF440300A9005
:1056F00004200B9003200C904FF400000D908010BC
:105700000E9069460848FBF771FC012210210648FB
:10571000FBF7E0FB20210448FBF76CFB012102486A
:10572000FBF7F6F90FB030BD58640240802C014001
:1057300030B58FB005460C464FF0FA511E48FBF7C6
:1057400063F900211C48FBF7E3F91B48FBF750FA0B
:105750004FF000600090194801900295402003909E
:105760000494002005904FF480600690800007901C
:1057700080000890002009904FF440300A900420E7
:105780000B9003200C904FF400000D9080100E90B1
:1057900069460948FBF72AFC012210210648FBF75D
:1057A00099FB20210448FBF725FB01210248FBF768
:1057B000AFF90FB030BD000058640240802C0140AA
:1057C0001CB501210D20FEF717FE0C2208212A48E6
:1057D000FDF7E8FB0C2209212748FDF7E3FB0C222B
:1057E0000A212548FDF7DEFB0C220B212248FDF79C
:1057F000D9FB0C2211462048FDF7D4FB0C220221D4
:105800001E48FDF7CFFB4FF47060009003208DF829
:10581000050002208DF8040000208DF8060001200C
:105820008DF8070069461448FDF7E6FA0420009059
:1058300069461248FDF7E0FA4FF4805000900020CE
:105840008DF8070069460C48FDF7D6FA082000904D
:1058500000208DF8040002208DF8070069460848F2
:10586000FDF7CAFA0121C802FEF7DCFE0121880516
:10587000FEF7C2FD1CBD000000080240000C024003
:1058800000000240F8B5002000900025002400260A
:10589000002776205F49087500200860486088600E
:1058A000C86008610846FFF799FA0320FFF77CFB00
:1058B0000120FFF785F8002057490860486088609C
:1058C000C8604FF4806008610846FFF711FBFAF7E3
:1058D000DFFE00909DF8000010B19DF80000F8BDBB
:1058E0004FF4D5704C49086008204860402088601B
:1058F0000020C8604FF4806008610846FFF7F8FA9E
:10590000FBF706F800909DF8000020B901204349FC
:105910000860870712E000203F4908603720486090
:10592000402088600020C8604FF48060086108460D
:10593000FFF7DEFA3720FAF7C1FE00900020364963
:10594000086037204860402088600020C8604FF41D
:10595000806008610846FFF7CBFA3720FAF7AEFE01
:1059600000909DF80000002851D13BE000202A491A
:10597000086037204860402088600020C8604FF4ED
:10598000806008610846FFF7B3FA3720FAF796FE01
:1059900000909DF8000010B19DF800009FE720489E
:1059A00038431D4908602920486040208860002055
:1059B000C8604FF4806008610846FFF799FAFAF76B
:1059C0003DFF00909DF8000010B19DF8000086E7B3
:1059D0000020FFF79FF90546012080EAD57080F08E
:1059E0000106641C1EB94FF6FF708442BED34FF609
:1059F000FF70844204D31B2000909DF800006EE7E6
:105A000005F08040051E02D00220044908609DF880
:105A1000000064E7A8090020C00900204800002019
:105A20000000108010B50748006800F0C05040B179
:105A30000120054908604FF0C25102485830FAF77A
:105A4000E3FF10BD006402405C00002010B54FF47D
:105A50008070FFF7F3F850B10020254908704FF42B
:105A60008070FEF789FF01202249086037E002209C
:105A7000FFF7E4F830B10220FEF77EFF02201C4958
:105A800008702CE00820FFF7D9F830B10820FEF7A5
:105A900073FF04201649087021E02020FFF7CEF89C
:105AA00030B12020FEF768FF06201149087016E08B
:105AB0001020FFF7C3F830B11020FEF75DFF05207E
:105AC0000B4908700BE04FF40070FFF7B7F830B1E6
:105AD0004FF40070FEF750FF0720054908700021C1
