:020000040800F2
:10000000083701209D0100087F3F0008B535000832
:100010005D3F00088104000871AE00080000000088
:10002000000000000000000000000000B5620008B1
:1000300041110008000000008D410008B5010008D2
:10004000B7010008B7010008B7010008B7010008B0
:10005000B7010008B7010008B7010008B7010008A0
:10006000B7010008B7010008B7010008B701000890
:10007000B7010008B7010008B7010008B701000880
:10008000B7010008B7010008B7010008B701000870
:10009000B7010008B7010008B7010008B701000860
:1000A000B7010008B7010008B7010008B701000850
:1000B000E1640008E9640008B7010008B70100081E
:1000C000B7010008B7010008B7010008B701000830
:1000D000B7010008B7010008B7010008B701000820
:1000E000B7010008B7010008B7010008B701000810
:1000F000B7010008B7010008B7010008B701000800
:10010000B7010008A54A0008B7010008B7010008B8
:10011000B7010008B7010008B7010008B7010008DF
:10012000B7010008B7010008B701000895080008EA
:10013000B701000805150008B7010008B70100085D
:10014000B7010008B7010008B7010008B7010008AF
:10015000B7010008B7010008B7010008B70100089F
:10016000B7010008B7010008B7010008B70100088F
:10017000B701000805410008B7010008B7010008F1
:10018000B7010008B7010008DFF80CD000F082F8D2
:100190000048004781F200080837012006488047E0
:1001A00006480047FEE7FEE7FEE7FEE7FEE7FEE75C
:1001B000FEE7FEE7FEE7FEE7456400088901000868
:1001C00040EA01039B0703D009E008C9121F08C0D9
:1001D000042AFAD203E011F8013B00F8013B521E59
:1001E000F9D27047D2B201E000F8012B491EFBD2D0
:1001F00070470022F6E710B513460A460446194632
:10020000FFF7F0FF204610BD421E12F8013F002B01
:10021000FBD111F8013B02F8013B002BF9D17047EB
:1002200010B5044604E00B7800F8013B03B1491C0B
:10023000521EF8D2204610BD10B5002200E0521C1C
:10024000835C8C5CA34201D1002BF8D1D8B2E1B21F
:10025000401A10BD034611F8012B00F8012B002AAB
:10026000F9D11846704730B50B46014600202022D0
:10027000012409E021FA02F59D4205D303FA02F5B3
:10028000491B04FA02F52844151EA2F10102F1DC13
:1002900030BD0000064C074D06E0E06840F0010369
:1002A00094E8070098471034AC42F6D3FFF770FF8C
:1002B000086601082866010870B501EB020410F811
:1002C000015B15F0070301D110F8013B2A1106D19B
:1002D00010F8012B03E010F8016B01F8016B5B1EB5
:1002E000F9D12B0705D40023521E0FD401F8013B8E
:1002F000FAE710F8013B02F10202A1EB030303E06D
:1003000013F8015B01F8015B521EF9D5A142D6D367
:10031000002070BD2DE9F04107460C4615461E46EB
:1003200030200AF0A7FD38460AF0AEFD31200AF071
:10033000A1FD38120AF0A8FD34200AF09BFD2046EA
:100340000AF0A2FD35200AF095FD20120AF09CFD6E
:1003500032200AF08FFD28460AF096FD33200AF07D
:1003600089FD28120AF090FD36200AF083FD304600
:100370000AF08AFD37200AF07DFD30120AF084FD74
:1003800003F006FFBDE8F08110B50EF075FE0DF02C
:10039000CBF808F0CFFC01F083FF10BD2DE9FC473E
:1003A00006460F46904699460A9C4FF47A71002003
:1003B0000AF078FF002531E025B1012D0CD0022D87
:1003C0001ED113E019A04B4642463946CDE9000440
:1003D00030460EF001FD13E01BA04B464246394665
:1003E000CDE9000430460EF0F7FC09E01DA04B46B5
:1003F00042463946CDE9000430460EF0EDFC00BF20
:1004000000BF00BF00200AF0B1FE0028FAD04FF470
:100410007A7100200AF046FF681CC5B2032DCBDBC1
:1004200000200EF086FBBDE8FC8700003E20332054
:10043000C3EBD6D3BAF3D7D4B6AFBDF8C8EBCFB5BC
:10044000CDB32E2E2E0000003E203220C3EBD6D39B
:10045000BAF3D7D4B6AFBDF8C8EBCFB5CDB32E2E17
:100460002E0000003E203120C3EBD6D3BAF3D7D400
:10047000B6AFBDF8C8EBCFB5CDB32E2E2E00000021
:1004800000BFFEE710B58AB019481A49886140F2EA
:10049000FF10C86118A101A80CF014FB044614B1A8
:1004A00000200AB010BD00BF124901A80CF01EFCCC
:1004B00004460CB10020F4E70E48407A08B9002049
:1004C000EFE70C48007A10F0200FEDD00948806962
:1004D000007828B9074909310A48FFF7BBFE04E054
:1004E000044881690748FFF7B5FE0120D9E70000FD
:1004F000B8010020B8030020303A2F757064617491
:1005000065000000D803002010B58AB019481A49C8
:10051000886140F2FF10C86118A101A80CF0D2FA5E
:10052000044614B100200AB010BD00BF124901A852
:100530000CF0DCFB04460CB10020F4E70E48407AD6
:1005400008B90020EFE70C48007A10F0200FEDD03A
:1005500009488069007828B9074909310A48FFF736
:1005600079FE04E0044881690748FFF773FE012023
:10057000D9E700000C0400200C060020313A2F754A
:1005800070646174650000002C06002010B500BF87
:1005900003F0D6FC00F080018029F9D010BD10B521
:1005A0008E200AF067FC03F0CBFFC4B244F0400495
:1005B00020460AF069FC03F0EBFD10BD10B50022E7
:1005C0000121024806F0FCF910BD000000040040C3
:1005D00070B500254FF4803400E0641E24B1802003
:1005E00004F066F90028F8D014B90325284670BD38
:1005F00040F2FF5004F03AF82846F8E72DE9F041C0
:10060000064600274748056801E04648056815F09A
:10061000450FFAD015F0040F06D00327042004F08C
:1006200025F83846BDE8F08115F0010F05D0012707
:10063000012004F01BF83846F4E704F033F9B04227
:1006400002D010273846EDE740F2FF5004F00EF8D4
:10065000002004F0FDF904463348044201D1384635
:10066000E0E714F0004F01D01C20DBE714F0804FCE
:1006700001D00920D6E714F0005F01D00A20D1E7AD
:1006800014F0805F01D00B20CCE714F0006F01D094
:100690000C20C7E714F0806F01D00D20C2E714F0E2
:1006A000807F01D00E20BDE714F4000F01D00F2091
:1006B000B8E714F4800F01D01020B3E714F4001F42
:1006C00001D01120AEE714F4801F01D01220A9E759
:1006D00014F4002F01D01320A4E714F4802F01D0CC
:1006E00014209FE714F4003F01D015209AE714F47A
:1006F000803F01D0162095E714F4004F01D0172059
:1007000090E714F4804F01D018208BE714F4005FB9
:1007100001D0192086E714F0080F01D01A2081E7D4
:1007200038467FE7342C014008E0FFFD70B5002516
:100730000F48046801E00E48046814F0450FFAD031
:1007400014F0040F05D00325042003F08FFF284682
:1007500070BD14F0010F05D00125012003F086FFC4
:100760002846F5E740F2FF5003F080FF2846EFE708
:10077000342C014070B500250B48046801E00A489C
:10078000046814F0450FFAD014F0040F05D00325C7
:10079000042003F06BFF284670BD40F2FF5003F0C9
:1007A00065FF2846F8E70000342C01402DE9F041B0
:1007B00006460F464FF000082248056801E0214830
:1007C000056815F0450FFAD015F0040F07D04FF06B
:1007D0000308042003F04AFF4046BDE8F08115F00D
:1007E000010F06D04FF00108012003F03FFF404603
:1007F000F3E704F057F8B04203D04FF0100840463A
:10080000EBE740F2FF5003F031FF002004F020F945
:10081000044614F4604F03D1200C38804046DCE7D6
:1008200014F4005F01D01320D7E714F4804F01D0F7
:100830001020D2E714F4004F01D00F20CDE740463E
:10084000CBE70000342C014070B500264FF4803512
:100850000F48046802E06D1E0D48046814F0450F4F
:1008600001D1002DF7D115B114F0040F05D00326E6
:10087000042003F0FBFE304670BD14F0400F05D09D
:100880000026402003F0F2FE3046F5E73046F3E75D
:10089000342C014010B504F077FF10BD70B504464C
:1008A0000D46344884423AD032481830844236D01B
:1008B00030483030844232D02E48483084422ED0E6
:1008C0002C48603084422AD02A487830844226D08E
:1008D00028489030844222D02648A83084421ED036
:1008E000254884421BD024481830844217D022481F
:1008F0003030844213D02048483084420FD01E4804
:10090000603084420BD01C487830844207D01A48AB
:100910009030844203D01848A830844200D104E0CB
:1009200040F2344115A00AF0CBFB05F04050B0F185
:10093000405F07D015F0405F04D01848054201D150
:1009400005B104E040F235410CA00AF0B9FB0A48B9
:10095000844202D2074E103E01E0074E103E15F0D1
:10096000005F03D00E482840F06002E00C482840A9
:10097000B06070BD10600240106402402E2E5C46D4
:10098000574C49425C7372635C73746D33326634E6
:1009900078785F646D612E630000000082F002C011
:1009A0007D0F7D0F70B504460D462C4884423AD029
:1009B0002A481830844236D028483030844232D019
:1009C0002648483084422ED02448603084422AD0C1
:1009D00022487830844226D020489030844222D069
:1009E0001E48A83084421ED01D4884421BD01C489B
:1009F0001830844217D01A483030844213D0184837
:100A0000483084420FD01648603084420BD01448DE
:100A10007830844207D012489030844203D0104886
:100A2000A830844200D104E040F2E1110DA00AF0A8
:100A300047FB0DB1012D00D104E04FF4F17109A085
:100A40000AF03EFB25B1206840F00100206003E081
:100A5000206820F00100206070BD0000106002409E
:100A6000106402402E2E5C46574C49425C73726300
:100A70005C73746D3332663478785F646D612E63B5
:100A80000000000010B50446724884423AD0714814
:100A90001830844236D06F483030844232D06D48AE
:100AA000483084422ED06B48603084422AD0694856
:100AB0007830844226D067489030844222D06548FE
:100AC000A83084421ED0644884421BD0624818304B
:100AD000844217D060483030844213D05E4848309A
:100AE00084420FD05C48603084420BD05A48783042
:100AF000844207D058489030844203D05648A830EA
:100B0000844200D103E0C72154A00AF0D9FA20683A
:100B100020F001002060002020606060A060E060A4
:100B20002061212060614B48844204D13D20494925
:100B3000103988608CE047481830844205D14FF462
:100B4000746044491039886082E042483030844201
:100B500005D14FF474103F491039886078E03D4862
:100B60004830844205D14FF074603A4910398860AA
:100B70006EE038486030844204D14048354910392D
:100B8000C86065E033487830844204D13C4831493C
:100B90001039C8605CE02F489030844204D1394855
:100BA0002C491039C86053E02A48A830844205D146
:100BB0004FF03D5027491039C86049E0264884422B
:100BC00004D13D2024490839086041E0224818300A
:100BD000844205D14FF474601F490839086037E03A
:100BE0001D483030844205D14FF474101A49083939
:100BF00008602DE018484830844205D14FF07460F9
:100C000015490839086023E013486030844204D154
:100C10001A481149091F08601AE00F4878308442C9
:100C200004D117480C49091F086011E00A489030A8
:100C3000844204D113480849091F086008E00648A7
:100C4000A830844204D14FF03D500349091F086089
:100C500010BD000010600240106402402E2E5C4661
:100C6000574C49425C7372635C73746D3332663403
:100C700078785F646D612E63000000003D00002005
:100C8000400F002000003D2070B504460D462C4862
:100C900084423AD02A481830844236D0284830302E
:100CA000844232D02648483084422ED024486030D6
:100CB00084422AD022487830844226D0204890307E
:100CC000844222D01E48A83084421ED01D4884424F
:100CD0001BD01C481830844217D01A483030844248
:100CE00013D01848483084420FD0164860308442F0
:100CF0000BD014487830844207D012489030844298
:100D000003D01048A830844200D104E040F22921E9
:100D10000DA00AF0D5F90DB1202D00D104E040F26C
:100D20002A2109A00AF0CCF925B1206840F0200062
:100D3000206003E0206820F02000206070BD0000EB
:100D400010600240106402402E2E5C46574C49420F
:100D50005C7372635C73746D3332663478785F648D
:100D60006D612E630000000070B504460D46164606
:100D7000394884423AD038481830844236D0364810
:100D80003030844232D03448483084422ED0324809
:100D9000603084422AD030487830844226D02E48B1
:100DA0009030844222D02C48A83084421ED02B4858
:100DB00084421BD029481830844217D0274830304D
:100DC000844213D02548483084420FD023486030F5
:100DD00084420BD021487830844207D01F4890309D
:100DE000844203D01D48A830844200D104E040F280
:100DF00061411BA00AF064F935F09E0001D105B1F4
:100E000004E040F2624116A00AF05AF90EB1012E38
:100E100000D104E040F2634111A00AF051F915F04D
:100E2000800F09D026B1606940F08000606103E066
:100E3000606920F080006061802D0BD02EB12068A9
:100E400005F01E010843206004E0206805F01E0143
:100E50008843206070BD00001060024010640240B2
:100E60002E2E5C46574C49425C7372635C73746D02
:100E70003332663478785F646D612E630000000061
:100E800070B505460C460026A24885423AD0A148D6
:100E90001830854236D09F483030854232D09D4848
:100EA000483085422ED09B48603085422AD09948F0
:100EB0007830854226D097489030854222D0954898
:100EC000A83085421ED0944885421BD092481830E5
:100ED000854217D090483030854213D08E48483034
:100EE00085420FD08C48603085420BD08A487830DC
:100EF000854207D088489030854203D08648A83084
:100F0000854200D104E04FF4A27184A00AF0D8F821
:100F10002068D8B12068B0F1007F17D02068B0F108
:100F2000806F13D02068B0F1C06F0FD02068B0F18F
:100F3000006F0BD02068B0F1206F07D02068B0F1AF
:100F4000406F03D02068B0F1606F00D104E040F240
:100F5000451172A00AF0B4F8E06828B1E0684028B2
:100F600002D0E068802800D104E04FF4A3716BA0A8
:100F70000AF0A6F8206920B12069B0F5803F00D2C0
:100F800004E040F2471165A00AF09AF86069B0F5F4
:100F9000007F01D0606900B904E04FF4A4715FA044
:100FA0000AF08EF8A069B0F5806F01D0A06900B991
:100FB00004E040F2491159A00AF082F8E06938B122
:100FC000E069B0F5006F03D0E069B0F5805F00D153
:100FD00004E04FF4A57151A00AF072F8206A38B10C
:100FE000206AB0F5005F03D0206AB0F5804F00D1D1
:100FF00004E040F24B1149A00AF062F8606A18B1AF
:10100000606AB0F5807F00D104E04FF4A67143A080
:101010000AF056F8A06A58B1A06AB0F5803F07D030
:10102000A06AB0F5003F03D0A06AB0F5403F00D100
:1010300004E040F24D1139A00AF042F8E06A10B124
:10104000E06A042800D104E04FF4A77133A00AF04D
:1010500037F8206B40B1206B012805D0206B0228A7
:1010600002D0206B032800D104E040F24F112BA0E6
:101070000AF026F8606B58B1606BB0F5000F07D02E
:10108000606BB0F1807F03D0606BB0F1C07F00D1A6
:1010900004E04FF4A87121A00AF012F8A06B58B137
:1010A000A06BB0F5001F07D0A06BB0F5800F03D088
:1010B000A06BB0F5C00F00D104E040F2511117A0B1
:1010C00009F0FEFF2E681D480640E16820680843CD
:1010D00061690843A1690843E1690843216A08433B
:1010E000616A0843A16A0843616B0843A16B084326
:1010F00006432E606E6926F00706D4E90B0108430B
:1011000006436E61206968606068A860A068E86056
:1011100070BD000010600240106402402E2E5C463C
:10112000574C49425C7372635C73746D333266343E
:1011300078785F646D612E63000000003F801CF0D2
:10114000704707E042F63D0100BF0A00A1F101012E
:10115000FBD1401E0028F5D1704710B5012009F0E1
:1011600089FE802009F090FE03F012F810BD10B542
:10117000902009F07FFE102009F086FEB02009F0D3
:1011800083FE10BD08B53D208DF8000001208DF8CC
:10119000010000208DF8020001208DF80300684650
:1011A00002F0F4FE08BD000010B5044606480442F3
:1011B00001D104B104E040F28D7104A009F080FF78
:1011C0000A48446110BD00000018FEFF2E2E5C4648
:1011D000574C49425C7372635C73746D333266348E
:1011E00078375F6574682E6300000000009002404D
:1011F00070B504460D461048044201D104B104E024
:1012000040F23E710DA009F05BFF0DB1012D00D140
:1012100004E040F23F7109A009F052FF2DB10F48E0
:10122000C06920430D49C86104E00C48C069A0436F
:101230000A49C86170BD00000018FEFF2E2E5C46F2
:10124000574C49425C7372635C73746D333266341D
:1012500078375F6574682E630000000000900240DC
:1012600010B504460CB1012C00D104E040F2F3713A
:1012700008A009F025FF34B10E48806940F0020053
:101280000C49886105E00B48806920F0020009499B
:10129000886110BD2E2E5C46574C49425C737263C8
:1012A0005C73746D3332663478375F6574682E63AF
:1012B000000000000090024070B50C46134600216B
:1012C000124D286000BF18E000EB41124FF00045BE
:1012D000156044F2F4555560C1EBC11505EB4505A9
:1012E00004EB850595605D1E8D4204D900EB411528
:1012F0002035D56000E0D060491C9942E4D3044D0C
:10130000E860044D044E356070BD0000BC00002054
:101310000090024054420020C000002070B50446F6
:101320000D460DB1012D00D104E040F2616107A02E
:1013300009F0C6FE25B1606820F00040606003E05F
:10134000606840F00040606070BD00002E2E5C467A
:10135000574C49425C7372635C73746D333266340C
:1013600078375F6574682E630000000010B504468E
:101370000CB1012C00D104E040F2DC7108A009F0AE
:101380009FFE34B10E48806940F400500C498861DA
:1013900005E00B48806920F400500949886110BDC0
:1013A0002E2E5C46574C49425C7372635C73746DBD
:1013B0003332663478375F6574682E63000000004E
:1013C0000090024030B50C46134600210F4D2860B6
:1013D00000BF15E000EB41124FF480151560C1EB22
:1013E000C11505EB450504EB850595605D1E8D4235
:1013F00004D900EB41152035D56000E0D060491CD0
:101400009942E7D3024D286130BD0000B8000020AA
:101410000090024070B505460C4644B1B4F5800F0B
:1014200005D0B4F5000F02D0B4F5400F00D104E0B0
:1014300040F2925103A009F043FE2868204328603F
:1014400070BD00002E2E5C46574C49425C7372639F
:101450005C73746D3332663478375F6574682E63FD
:101460000000000010B50121480602F0D5FE002161
:101470004FF0007002F0D0FE10BD01B581B0002029
:1014800000900198009002E00098401E00900098A3
:101490000028F9D10CBD00000348806940F4801099
:1014A00001498861704700000090024001480068CF
:1014B00080687047B800002001460868C0F30D40FE
:1014C000704700B502460023106810F0004F0BD1A2
:1014D000106810F4004F07D1106810F4807F03D01B
:1014E0001046FFF7E9FF0346184600BD00200449F7
:1014F000096811F0010F01D0012000E000207047C1
:101500000090024010B501E002F020FD064800689E
:10151000FFF7D7FF0028F7D14020FFF745FE4FF433
:101520008030FFF741FE10BDBC0000202DE9F041E6
:1015300086B004460F464FF00008002500200590B5
:10154000F84E00902068012801D0206800B904E01E
:101550004FF48C71F4A009F0B3FD606818B16068B5
:10156000B0F5000F00D104E040F21911EEA009F02F
:10157000A7FDA06818B1A068B0F5800F00D104E005
:101580004FF48D71E8A009F09BFDE068D8B1E068E8
:10159000B0F5003F17D0E068B0F5802F13D0E068B9
:1015A000B0F5C02F0FD0E068B0F5002F0BD0E06889
:1015B000B0F5202F07D0E068B0F5402F03D0E068E9
:1015C000B0F5602F00D104E040F21B11D6A009F065
:1015D00077FD206918B12069B0F5803F00D104E0A3
:1015E0004FF48E71D0A009F06BFD606918B160698D
:1015F000B0F5804F00D104E040F21D11CAA009F0FF
:101600005FFDA06918B1A069B0F5005F00D104E0EA
:101610004FF48F71C4A009F053FDE069B0F5805F0D
:1016200001D0E06900B904E040F21F11BEA009F04A
:1016300047FD206AB0F5006F01D0206A00B904E0D0
:101640004FF49071B8A009F03BFD606AB0F5806F6F
:1016500001D0606A00B904E040F22111B2A009F0A3
:101660002FFDA06A18B1A06AB0F5007F00D104E098
:101670004FF49171ACA009F023FDE06A802801D0FD
:10168000E06A00B904E040F22311A7A009F018FDB8
:10169000206B40B1206B202805D0206B402802D061
:1016A000206B602800D104E04FF492719EA009F0F5
:1016B00007FD606B102801D0606B00B904E040F2B8
:1016C000251199A009F0FCFCA06BB0F1004F01D0EE
:1016D000A06B00B904E04FF4937193A009F0F0FC03
:1016E000E06BB0F5007F05D0E06BB0F5407F01D036
:1016F000E06B00B904E040F227118BA009F0E0FC98
:10170000206C402805D0206C802802D0206CC02896
:1017100000D104E04FF4947183A009F0D1FC606C17
:1017200010B1606C202800D104E040F229117EA0A5
:1017300009F0C6FCA06C10B1A06C082800D104E030
:101740004FF4957178A009F0BBFC206DA0F5806185
:10175000043907D0206D042804D0206D10B1206D0D
:10176000102800D104E04FF496716FA009F0A8FC96
:10177000606DA0F58061023904D0606D022801D04F
:10178000606D00B904E040F22D1167A009F098FCEB
:10179000206EB0F5803F00D204E04FF4977162A054
:1017A00009F08EFC606E10B1606E802800D104E0FC
:1017B00040F22F115CA009F083FCA06E40B1A06E36
:1017C000102805D0A06E202802D0A06E302800D1AD
:1017D00004E04FF4987154A009F072FCE06E082800
:1017E00001D0E06E00B904E040F231114EA009F0E2
:1017F00067FC206F042801D0206F00B904E04FF48B
:10180000997149A009F05CFC606F022801D0606FFB
:1018100000B904E040F2331143A009F051FCA06F7D
:10182000B0F5803F01D0A06F00B904E04FF49A7189
:101830003DA009F045FCE06FB0F5803F00D204E028
:1018400040F2351138A009F03BFCD4F8800020B1FB
:10185000D4F88000B0F1806F00D104E040F237117D
:1018600031A009F02DFCD4F88400B0F1007F02D043
:10187000D4F8840000B904E04FF49C712AA009F068
:101880001FFCD4F8880020B1D4F88800B0F1807F24
:1018900000D104E040F2391123A009F011FCD4F882
:1018A0008C00B0F5001F02D0D4F88C0000B904E021
:1018B0004FF49D711CA009F003FCD4F8900010B304
:1018C000D4F89000B0F5804F1DD0D4F89000B0F55A
:1018D000004F18D0D4F89000B0F5404F13D0D4F892
:1018E0009000B0F5803F0ED0D4F89000B0F5A03F46
:1018F00009D0D4F89000B0F5C03F04D0D4F89000DF
:10190000B0F5E03F00D104E040F23B1106A009F041
:10191000D7FBD4F89400802802D0D4F8940098B96A
:1019200018E00000008793032E2E5C46574C494276
:101930005C7372635C73746D3332663478375F65E1
:1019400074682E63000000004FF49E71AFF228000F
:1019500009F0B6FBD4F89800402802D0D4F89800DB
:1019600000B905E040F23D11AFF2440009F0A8FBD8
:10197000D4F89C0058B1D4F89C00082807D0D4F8BB
:101980009C00102803D0D4F89C00182800D105E052
:101990004FF49F71AFF2700009F092FBD4F8A000F1
:1019A000042802D0D4F8A00000B905E040F23F11AD
:1019B000AFF28C0009F084FBD4F8A400B0F1007FF2
:1019C00002D0D4F8A40000B905E04FF4A071AFF242
:1019D000A80009F075FBD4F8A800B0F5803F02D04C
:1019E000D4F8A80000B905E040F24111AFF2C800F8
:1019F00009F066FBD4F8AC00B0F5003F36D0D4F85F
:101A0000AC00B0F5802F31D0D4F8AC00B0F5002F89
:101A10002CD0D4F8AC00B0F5801F27D0D4F8AC009F
:101A2000B0F5001F22D0D4F8AC00B0F5800F1DD067
:101A3000D4F8AC00B0F1817F18D0D4F8AC00B0F18C
:101A4000827F13D0D4F8AC00B0F1847F0ED0D4F8EC
:101A5000AC00B0F1887F09D0D4F8AC00B0F1907F31
:101A600004D0D4F8AC00B0F1A07F00D105E04FF471
:101A7000A171AFF24C1009F023FBD4F8B000B0F51F
:101A8000807F36D0D4F8B000B0F5007F31D0D4F8E4
:101A9000B000B0F5806F2CD0D4F8B000B0F5006F76
:101AA00027D0D4F8B000B0F5805F22D0D4F8B000D1
:101AB000B0F5005F1DD0D4F8B000B0F1012F18D000
:101AC000AA49D4F8B000884213D0A949D4F8B0008C
:101AD00088420ED0A749D4F8B000884209D0A64960
:101AE000D4F8B000884204D0A449D4F8B0008842A9
:101AF00000D105E040F24311AFF2D41009F0E0FA52
:101B0000D4F8B4001F2800D805E04FF4A271AFF25A
:101B1000E81009F0D5FAD4F8B80090B1D4F8B800BC
:101B2000B0F5804F0DD0D4F8B800B0F5004F08D014
:101B3000D4F8B800B0F5404F03D0D4F8B80002286C
:101B400000D105E040F24511AFF2242009F0B8FAC7
:101B50008B48056925F01C0501A802F073FC029E64
:101B60008848864205D38848864202D245F0080557
:101B70001AE08548864205D38448864202D245F061
:101B80000C0511E08148864203D38148864200D289
:101B90000AE07F48864205D37E48864202D245F05D
:101BA000040501E045F01005754805612068A0B303
:101BB0000121384600F0CEF910F0040F4DD04FF45B
:101BC00080520021384600F013FB18B9002006B0FF
:101BD000BDE8F08100BF0098401C0090012138460C
:101BE00000F0B8F910F0200F03D16B49009888423B
:101BF000F1D369490098884201D10020E7E700202D
:101C000000901F21384600F0A5F9804618F0100F0B
:101C100004D04FF40060206202E00BE0002020625C
:101C200018F0040F02D00020606116E04FF48040ED
:101C3000606112E0206AC0F3CF006169C1F34F0117
:101C400040EA01020021384600F0D2FA08B900202B
:101C5000BDE76FF07F40FFF710FC494805684F482B
:101C60000540D4E901010843E168084321690843BC
:101C700061690843A1690843E1690843216A08438F
:101C8000616A0843A16A0843E16A0843216B08437B
:101C9000616B084305433A480560D4E90E010843E7
:101CA000216C0843616C0843A16C0843E16C084354
:101CB000216D0843616D084331494860A06D88601B
:101CC000E06DC860084685694FF641700540B4F87C
:101CD0006010606E40EA0140A16E0843E16E084367
:101CE000216F0843616F0843054325488561D4E9A6
:101CF0001E0108432249C8612948856929480540D1
:101D0000D4E920010843D4F888100843D4F88C1093
:101D10000843D4F890100843D4F894100843D4F83A
:101D200098100843D4F89C100843D4F8A010084336
:101D300005431B488561D4E929010843D4F8AC1058
:101D40000843D4F8B0100843D4F8B41040EA810036
:101D5000D4F8B810084340F4000011490860084660
:101D6000006840F080000860012030E700020001B8
:101D70000004000100080001001000010020000123
:101D800000800240002D3101C00E1602008793032F
:101D900000E1F50580D1F008FFFF04000F8120FF6E
:101DA00000900240233FDEF870B504460D462CB18A
:101DB000082C03D0102C01D0182C00D104E040F2E4
:101DC00035310CA009F07CF92879697940EA0126BF
:101DD000104820440664E8780006A97840EA0140EB
:101DE000697840EA0120297840EA01060948204440
:101DF000466470BD2E2E5C46574C49425C7372633C
:101E00005C73746D3332663478375F6574682E6343
:101E1000000000000080024010B5B0B001214FF07A
:101E2000606002F0C1F9FFF71DFB00F039F900BF57
:101E3000FFF75CFB0128FBD001A800F04BF9012063
:101E40000190002008904FF400700B9000200C903F
:101E50000F90129014901590169021904FF00070F2
:101E60002290001124900020269027900420299091
:101E7000C0052A9040122B9080012C9040122D908A
:101E800040002F90002101A8FFF750FBC4B2012CA5
:101E900003D101210248FFF7ABF9204630B010BD55
:101EA0004000010010B504460CB1012C00D104E043
:101EB00040F2862108A009F003F934B10E48006809
:101EC00040F004000C49086005E00B48006820F071
:101ED00004000949086010BD2E2E5C46574C49424B
:101EE0005C7372635C73746D3332663478375F652C
:101EF00074682E63000000000080024010B50446A4
:101F00000CB1012C00D104E040F26E2108A009F0D0
:101F1000D7F834B10E48006840F008000C4908605A
:101F200005E00B48006820F008000949086010BD72
:101F30002E2E5C46574C49425C7372635C73746D21
:101F40003332663478375F6574682E6300000000B2
:101F500000800240F8B506460D460024002000909F
:101F6000202E00DC04E040F68D011CA009F0A8F84A
:101F70001DB1012D01D01F2D00D104E040F68E01CE
:101F800016A009F09DF81D48046904F01C044FF4E4
:101F9000784000EAC62004434FF4F86000EA851058
:101FA000044324F0020444F001041448046100BF17
:101FB0000098401C00901148046914F0010F03D0F0
:101FC0000F4900988842F3D30D490098884201D107
:101FD0000020F8BD0948406980B2FAE72E2E5C4621
:101FE000574C49425C7372635C73746D3332663470
:101FF00078375F6574682E6300000000008002403F
:10200000FFFF04001EB500210022009201920292FF
:10201000214A1268126812F0004F10D0002200927C
:102020001E4A526912F0800F04D080221B4B5A6165
:1020300000229A609DE81C0080E81C001EBD164A24
:102040001268126812F4004F16D1134A126812680F
:1020500012F4807F10D0104A1268126812F4007FC8
:102060000AD00D4A12681268C2F30D42111F0A4AC3
:1020700012689268019200E000210091064A1268FD
:102080000292054A1268D268034B1A609DE81C0050
:1020900080E81C0000BFD1E7BC0000200090024097
:1020A0000348006840F001000149086070470000E3
:1020B0000090024010B50120FFF720FFFFF7ECF978
:1020C0000120FFF7EFFE0120FFF750F90120FFF795
:1020D000C7F810BD01210160002141608160C1602D
:1020E00001614FF48041416100218161C1614FF480
:1020F00000610162002141628162C162016341634A
:102100008163C16340210164202141640021816415
:10211000C164016541658165C165016680214166D3
:1021200000218166C166016741678167C1674FF021
:102130008061C0F880104910C0F884100021C0F8F8
:1021400088104FF40011C0F88C100021C0F89010D6
:10215000C0F89410C0F89810C0F89C10C0F8A010F7
:102160004FF00071C0F8A4104912C0F8A8108901FE
:10217000C0F8AC104912C0F8B0100021C0F8B4107B
:10218000C0F8B810704700000146174800680068A2
:1021900010F0004F01D000207047C1F30C00124A2C
:1021A0001268506010480068006840F040500E4AC5
:1021B000126810600C480068006840F000400A4A4D
:1021C000126810600948406910F0040F04D0042020
:1021D000064A50610020506003480068C068024A07
:1021E00010600120D8E70000B800002000900240F5
:1021F000F8B506460D461746002400200090202E14
:1022000000DC04E040F6BC011BA008F059FF1DB142
:10221000012D01D01F2D00D104E040F6BD0116A014
:1022200008F04EFF1C48046904F01C044FF4784089
:1022300000EAC62004434FF4F86000EA8510044326
:1022400044F0020444F0010413484761046100BFF4
:102250000098401C00901048046914F0010F03D04E
:102260000E4900988842F3D30C490098884201D166
:102270000020F8BD0120FCE72E2E5C46574C494259
:102280005C7372635C73746D3332663478375F6588
:1022900074682E630000000000800240FFFF04000D
:1022A00000B589B017A103C9CDE9040101F0C4FD4F
:1022B0000DF0CCF80DF058FA14480BF04AFC0890D9
:1022C0006FF0FF000BF045FC079010486E380BF0E4
:1022D00040FC069004A804F091F80D480D49002236
:1022E00006ABCDE90021029007AA08A90A480DF023
:1022F000A5FA09480DF0F0FA07480DF03BFB09B0CC
:1023000000BD000000000000000200006F00A8C037
:1023100053C50008C1C500082442002010B504467A
:1023200040F2F31034EA000001D104B104E040F2BD
:10233000EC5103A008F0C4FE0948046010BD000081
:102340002E2E5C46574C49425C7372635C73746D0D
:102350003332663478785F666C6173682E63000090
:102360000C3C02402DE9F04104460D4600270926A9
:102370006CB3082C2BD0102C29D0182C27D0202C53
:1023800025D0282C23D0302C21D0382C1FD0402C05
:102390001DD0482C1BD0502C19D0582C17D0802C75
:1023A00015D0882C13D0902C11D0982C0FD0A02CA5
:1023B0000DD0A82C0BD0B02C09D0B82C07D0C02C35
:1023C00005D0C82C03D0D02C01D0D82C00D104E0EB
:1023D00040F2DB1126A008F073FE2DB1012D03D0D1
:1023E000022D01D0032D00D104E04FF4EE7120A0A6
:1023F00008F066FE0DB9002709E0012D01D12F027A
:1024000005E0022D01D12F0201E04FF4407700F0EA
:1024100079F90646092E28D11D48006820F440703D
:102420001B49086008460068384308600846006891
:1024300020F0F80008600846006844F002010843F4
:10244000134908600846006840F48030086000F0D6
:1024500059F906460E48006820F002000C49086051
:102460000846006820F0F80008603046BDE8F081BA
:102470002E2E5C46574C49425C7372635C73746DDC
:102480003332663478785F666C6173682E6300005F
:10249000103C024009201349096801F48031B1F56C
:1024A000803F01D101201CE00E49096811F0100F96
:1024B00001D0062015E00B49096811F4807F01D096
:1024C00002200EE00749096811F0EF0F01D0072044
:1024D00007E00449096811F0020F01D0082000E06C
:1024E000092070470C3C024070B504462546002088
:1024F00004F038FC0F48854218D802212820FFF745
:1025000031FF1E2004F02EFC02213020FFF72AFFAD
:102510003C2004F027FC02213820FFF723FF5A203B
:1025200004F020FC642004F01DFC01E0012070BDDB
:102530000020FCE70000060810B500F0D1F810BD3F
:102540002DE9F04104460E4617460025A84600BF77
:1025500017E056F8250080F055382068414600F015
:1025600071F809280AD120680068404502D002208D
:10257000BDE8F0812068001D206001E00120F7E740
:102580006D1CBD4203D2206802498842E1D9002077
:10259000EEE70000FBFF07080348006840F000403A
:1025A0000149086070470000103C024070B50446C5
:1025B0000D460926B4F1006F02D3B4F1016F05D3C3
:1025C0001548844203D31548844200D804E040F201
:1025D0006A3113A008F074FD00F094F80646092E45
:1025E00017D11748006820F4407015490860084664
:1025F000006808600846006840F001000860257027
:1026000000F080F806460E48006820F001000C49F2
:102610000860304670BD00000078FF1F0F7AFF1F72
:102620002E2E5C46574C49425C7372635C73746D2A
:102630003332663478785F666C6173682E630000AD
:10264000103C024070B504460D460926B4F1006FF7
:1026500002D3B4F1016F05D31648844203D3164860
:10266000844200D804E040F2163114A008F028FD9E
:1026700000F048F80646092E19D11848006820F4E1
:102680004070164908600846006840F40070086011
:102690000846006840F001000860256000F032F84C
:1026A00006460E48006820F001000C4908603046DC
:1026B00070BD00000078FF1F0F7AFF1F2E2E5C46B2
:1026C000574C49425C7372635C73746D3332663489
:1026D00078785F666C6173682E630000103C02407E
:1026E0000548006810F0004F05D0044802490C3935
:1026F0000860034808607047103C024023016745AA
:10270000AB89EFCD08B509200090FFF7C3FE00901C
:1027100002E0FFF7BFFE00909DF800000128F8D00E
:102720009DF8000008BD00B59DB001200790002075
:102730000890012009900A9000200B900C900D90B9
:1027400002200090002001900420029001200390BC
:1027500000200490059006900E900F90109010208D
:1027600011900020129013901490159016904FF431
:10277000805017900020189019901A90CDF86CD0C6
:1027800007A81C900EA800F049F80121002000F0D5
:1027900003F81DB000BD000070B504460D462CB115
:1027A000022C03D0042C01D0062C00D104E040F20E
:1027B0000F1111A008F084FC0DB1012D00D104E02F
:1027C0004FF488710CA008F07BFC55B14FF020400D
:1027D00050F8240040F001004FF0204141F824005F
:1027E00009E04FF0204050F824000B4908404FF01A
:1027F000204141F8240070BD2E2E5C46574C4942C2
:102800005C7372635C73746D3332663478785F66C0
:10281000736D632E63000000FEFF0F0010B50446C9
:10282000206840B12068022805D02068042802D022
:102830002068062800D103E09F21C8A008F040FCD2
:10284000606810B16068022800D103E0A021C3A035
:1028500008F036FCA06828B1A068042802D0A0685F
:10286000082800D103E0A121BCA008F029FCE06801
:1028700010B1E068102800D103E0A221B7A008F051
:102880001FFC206918B12069B0F5807F00D103E0FA
:10289000A321B2A008F014FC606918B16069B0F51A
:1028A000004F00D103E0A421ACA008F009FCA0690E
:1028B00018B1A069B0F5007F00D103E0A521A7A061
:1028C00008F0FEFBE06918B1E069B0F5806F00D157
:1028D00003E0A621A1A008F0F3FB206A18B1206A4A
:1028E000B0F5006F00D103E0A7219CA008F0E8FB41
:1028F000606A18B1606AB0F5805F00D103E0A8217A
:1029000096A008F0DDFBA06A18B1A06AB0F5005FE0
:1029100000D103E0A92191A008F0D2FBE06A18B130
:10292000E06AB0F5804F00D103E0AA218BA008F047
:10293000C7FB206B18B1206BB0F5002F00D103E06E
:10294000AB2186A008F0BCFB606B00680F2800D8A4
:1029500003E0AC2181A008F0B3FB606B40680F2856
:1029600000D803E0AD217DA008F0AAFB606B806871
:1029700020B1606B8068FF2800D803E0AE2177A00B
:1029800008F09EFB606BC0680F2800D803E0AF2101
:1029900072A008F095FB606B00690F2800D803E077
:1029A000B0216EA008F08CFB606B40690F2800D846
:1029B00003E0B12169A008F083FB606B806970B10E
:1029C000606B8069B0F1805F09D0606B8069B0F1A5
:1029D000005F04D0606B8069B0F1405F00D103E01C
:1029E000B2215EA008F06CFBD4E901010843E16864
:1029F00008432169084361690843A1690843E16903
:102A00000843216A0843616A0843A16A0843E16AEE
:102A10000843216B08434FF02042216842F821000F
:102A2000A068082808D11146206851F8200040F01D
:102A30004000216842F82100606B0068616B4968C2
:102A400040EA0110616B896840EA0120616B898965
:102A500040EA0140616B098A40EA0150616B097DDF
:102A600040EA0160616B896908432168491C4FF0A5
:102A7000204242F82100E06AB0F5804F63D1A06B9C
:102A800000680F2800D803E0D42134A008F018FB18
:102A9000A06B40680F2800D803E0D5212FA008F0D4
:102AA0000FFBA06B806820B1A06B8068FF2800D866
:102AB00003E0D62129A008F003FBA06B00690F28D2
:102AC00000D803E0D72125A008F0FAFAA06B4069EE
:102AD0000F2800D803E0D82120A008F0F1FAA06B5D
:102AE000806970B1A06B8069B0F1805F09D0A06B84
:102AF0008069B0F1005F04D0A06B8069B0F1405FE5
:102B000000D103E0D92115A008F0DAFAA06B006823
:102B1000A16B496840EA0110A16B896840EA012075
:102B2000A16B098A40EA0150A16B097D40EA01606E
:102B3000A16B896908434FF02042216802EB8101B3
:102B4000C1F8040108E06FF070404FF020422168A6
:102B500002EB8101C1F8040110BD00002E2E5C467D
:102B6000574C49425C7372635C73746D33326634E4
:102B700078785F66736D632E630000002DE9FC4179
:102B800007460D46002600240020009001900820F2
:102B90005A49086010204860402088600020C860C2
:102BA0004FF480600861084602F040F81020FDF7FD
:102BB00025FD044614B12046BDE8FC81504800883C
:102BC00000044E490860372048604020886000209B
:102BD000C8604FF480600861084602F027F837208B
:102BE000FDF70CFD04460CB12046E5E74FF0FF3041
:102BF0004449086008204860302088600220C8608E
:102C00000020086101204861084601F0B7FD00205E
:102C10003A49086033204860402088600020C8603E
:102C20004FF480600861084602F000F83320FDF799
:102C3000E5FC04460CB12046BEE709E04FF4001065
:102C400001F036FE20B101F0EBFF4DF82600761CB6
:102C50002D48006840F22A610842EFD0082001F0B8
:102C600027FE28B1082001F001FD04242046A3E737
:102C7000022001F01DFE28B1022001F0F7FC022421
:102C8000204699E7202001F013FE28B1202001F012
:102C9000EDFC062420468FE74FF4007001F008FE9B
:102CA00030B14FF4007001F0E1FC0724204683E7C7
:102CB00040F2FF5001F0DAFC00980006009901F4A0
:102CC0007F4140EA0120009901F47F0140EA112090
:102CD000009940EA1160686001980006019901F4CA
:102CE0007F4140EA0120019901F47F0140EA11206F
:102CF000019940EA1160286020465DE750070020F6
:102D00003C00002064070020342C01402DE9F041F4
:102D100004460D4600260027B046554884421DD083
:102D2000544884421AD05448844217D053488442AD
:102D300014D05348844211D0524884420ED0524895
:102D400084420BD05148844208D05148844205D077
:102D50005048844202D05048844200D103E0CF2141
:102D60004EA008F0ADF928880004000C00D003E064
:102D7000D0214AA008F0A4F9287940B12879012887
:102D800005D02879022802D02879032800D103E051
:102D9000D12142A008F094F9E87928B1E879012816
:102DA00002D0E879022800D103E0D2213BA008F04C
:102DB00087F9002657E0012000FA06F7286800EAA4
:102DC0000708B8454ED1206872000321914088431E
:102DD00020602879710088402168084320602879A4
:102DE000012802D02879022830D1687940B1687969
:102DF000012805D06879022802D06879032800D11B
:102E000003E0E42125A008F05BF9A068720003212B
:102E100091408843A060687971008840A1680843A8
:102E2000A060A87910B1A879012800D103E0EB21B6
:102E30001AA008F045F961680120B0408143616043
:102E40006168A879B04080B201436160E0687200B7
:102E5000032191408843E060E87971008840E1688F
:102E60000843E060761C102EA5D3BDE8F081000079
:102E7000000002400004024000080240000C024032
:102E8000001002400014024000180240001C0240E2
:102E90000020024000240240002802402E2E5C4602
:102EA000574C49425C7372635C73746D33326634A1
:102EB00078785F6770696F2E630000002DE9F0413C
:102EC00006460D4614460027B846544886421DD093
:102ED000534886421AD05348864217D052488642F9
:102EE00014D05248864211D0514886420ED05148E3
:102EF00086420BD05048864208D05048864205D0C2
:102F00004F48864202D04F48864200D104E040F24A
:102F100049214DA008F0D4F8EDB1012D1BD0022DB0
:102F200019D0032D17D0042D15D0052D13D0062D43
:102F300011D0072D0FD0082D0DD0092D0BD00A2D43
:102F400009D00B2D07D00C2D05D00D2D03D00E2D43
:102F500001D00F2D00D104E040F24A213AA008F040
:102F6000AFF8A4B3092C32D08CB384B37CB374B360
:102F7000012C2CD02BD0022C29D028D027D0032CE8
:102F800025D0042C23D022D021D0052C1FD01ED038
:102F9000092C1CD0062C1AD0092C18D0072C16D0BE
:102FA00015D014D0082C12D011D010D0092C0ED06E
:102FB0000DD00A2C0BD00AD00B2C08D00C2C06D02C
:102FC00005D00D2C03D00F2C01D00C2C00D104E027
:102FD00040F24B211CA008F073F86807C00E04FAF9
:102FE00000F7E91006F1200050F821006907CA0E29
:102FF0000F2191408843EA1006F1200141F8220098
:10300000E91006F1200050F8210040EA0708E91015
:1030100006F1200040F82180BDE8F0810000024068
:103020000004024000080240000C02400010024070
:103030000014024000180240001C02400020024020
:1030400000240240002802402E2E5C46574C494284
:103050005C7372635C73746D3332663478785F6767
:1030600070696F2E6300000070B505460C4600269F
:103070002E4885421DD02E4885421AD02D488542C3
:1030800017D02D48854214D02C48854211D02C48A9
:1030900085420ED02B4885420BD02B48854208D064
:1030A0002A48854205D02A48854202D029488542CF
:1030B00000D104E04FF4A47127A008F001F8012C1E
:1030C00025D0022C23D0042C21D0082C1FD0102C6A
:1030D0001DD0202C1BD0402C19D0802C17D0B4F53B
:1030E000807F14D0B4F5007F11D0B4F5806F0ED07E
:1030F000B4F5006F0BD0B4F5805F08D0B4F5005F75
:1031000005D0B4F5804F02D0B4F5004F00D104E0F3
:1031100040F2491110A007F0D3FF2869204201D0E6
:10312000012600E00026304670BD0000000002408D
:103130000004024000080240000C0240001002405F
:103140000014024000180240001C0240002002400F
:1031500000240240002802402E2E5C46574C494273
:103160005C7372635C73746D3332663478785F6756
:1031700070696F2E6300000070B504460D46184854
:1031800084421DD0174884421AD01748844217D071
:103190001648844214D01648844211D015488442FF
:1031A0000ED0154884420BD01448844208D01448ED
:1031B000844205D01348844202D01348844200D18F
:1031C00004E04FF4DA7111A007F07AFF05B104E0D2
:1031D00040F2B5110DA007F073FF658370BD0000CC
:1031E000000002400004024000080240000C0240BF
:1031F000001002400014024000180240001C02406F
:103200000020024000240240002802402E2E5C468E
:10321000574C49425C7372635C73746D333266342D
:1032200078785F6770696F2E6300000070B50446A0
:103230000D46184884421DD0174884421AD01748BA
:10324000844217D01648844214D01648844211D0C4
:10325000154884420ED0154884420BD0144884424D
:1032600008D01448844205D01348844202D0134841
:10327000844200D104E040F29F1111A007F020FF2A
:1032800005B104E04FF4D0710DA007F019FF2583BC
:1032900070BD00000000024000040240000802402F
:1032A000000C0240001002400014024000180240CE
:1032B000001C02400020024000240240002802407E
:1032C0002E2E5C46574C49425C7372635C73746D7E
:1032D0003332663478785F6770696F2E6300000060
:1032E0002DE9F04107460C4615461E46912007F091
:1032F000C1FD384607F0C8FD922007F0BBFD38122B
:1033000007F0C2FD952007F0B5FD204607F0BCFD93
:10331000962007F0AFFD201207F0B6FD932007F0CE
:10332000A9FD284607F0B0FD942007F0A3FD281260
:1033300007F0AAFD972007F09DFD304607F0A4FD99
:10334000982007F097FD301207F09EFD00F020FF57
:10335000BDE8F081014600201C2937D2DFE801F0EA
:10336000360E10121416181A1C3636363636363605
:10337000363636361E2124272A2D3033164828E0CB
:10338000022026E0042024E0082022E0102020E093
:1033900020201EE040201CE080201AE04FF4004076
:1033A00017E04FF4807014E04FF4007011E04FF418
:1033B00080600EE04FF400600BE04FF4805008E0B6
:1033C0004FF4005005E04FF4804002E00248401EF8
:1033D00000BF00BF704700000100FFFF0146002052
:1033E0002B4A914203D2B1F1006F00D34EE0294A3B
:1033F000914204D2264A914201D3082046E0264A4F
:10340000914204D2234A914201D310203EE0234A44
:10341000914204D2204A914201D3182036E0204A3A
:10342000914204D21D4A914201D320202EE01D4A30
:10343000914204D21A4A914201D3282026E01A4A26
:10344000914204D2174A914201D330201EE0174A1C
:10345000914204D2144A914201D3382016E0144A12
:10346000914204D2114A914201D340200EE0114A08
:10347000914204D20E4A914201D3482006E00E4AFE
:10348000914203D20B4A914200D350207047000072
:10349000004000080080000800C00008000001088B
:1034A00000000208000004080000060800000808E8
:1034B00000000A0800000C0800000E08034800780D
:1034C00008B1012070470020FCE70000A4000020A4
:1034D00001464869806880B2704708B50146D1F856
:1034E000CC00006800900098C0F3414008BD02463F
:1034F00002F29B30405C7047024602F5547050F86F
:103500002100704770B504460E4600250021C4F81E
:10351000101300BF0BE0002104F5457040F82510A2
:103520003C3040F825103C304155681CC5B20F2D89
:10353000F1DB0821A4F8B2133146204606F0C0F9A9
:10354000204605F0C7FD204605F088FC01212046F5
:1035500006F022FA204605F01AFD204605F013FE7B
:10356000002070BD0146D1F81003704710B5044625
:10357000204606F084F9002010BD70B504460D46C3
:10358000002104F29B304155113000EB45104161A0
:103590002946204606F022F870BD10B5202007F01D
:1035A00069FC00F0CDFFC4B204F0F704204607F038
:1035B0006BFC10BD08B500204FF496734FF4FA72FF
:1035C000C821009018460BF0E4FB06A000234FF43E
:1035D0007842F02100904FF4AF700BF091FA00BFE9
:1035E000FEE7000053797374656D204572726F7247
:1035F0002100000070B505460C4620460BF0EAFE9F
:1036000028460FF08DF828460FF07AF9002203497A
:10361000034800680FF070F970BD000041370008E2
:103620001800002001464878704770B504462546CA
:1036300068880CF0BBF970BD2DE9FC4107460D46CA
:10364000164600244FF40A700BF032FF04469CB972
:103650002548008824302449088024A026A100237E
:103660004FF6FF72CDE900101F4801882A480088F4
:103670000BF0B2FB03F04EFB022020602868C4F878
:103680000C02C4F810620020C4F81402C4F8180236
:103690002246224938460FF02FF9002020490860C1
:1036A000FEF74AFF1F48FEF71FFF1E481E4908602D
:1036B000324629463846D4F8143200F0DFF80BA021
:1036C0001AA100234FF6FF72CDE9001006480188C9
:1036D000114800880BF080FB034800882430024921
:1036E00008800020BDE8FC810A000020736F6E672F
:1036F00032342E7A6B0000003E20D2D4CCABCDF811
:10370000C9FDBCB6B3F6B4EDC1CBA1A3B4EDCEF305
:10371000B4FAC2EBA3BA350008000020293A000829
:103720000400002000000208140000203E20D5FD07
:10373000D4DAD0B4C8EBCEC4BCFE2E2E2E000000CE
:103740002DE9FC5F82468B4614461F46DDF830901B
:103750000FF0C4F88046B8F1000F13D12948008853
:1037600024302849088028A02AA100234FF6FF72A0
:10377000CDE90010234801882E4800880BF02CFB6F
:1037800003F0C8FA00222C4940460EF08FFF06468F
:103790009EB11C48008824301A4908801AA027A12D
:1037A00000234FF6FF72CDE900101648018821482A
:1037B00000880BF011FB03F0ADFA6068FFF732FFF1
:1037C0000546022D13D00F48008824300D4908808B
:1037D0000DA022A100234FF6FF72CDE90010094889
:1037E0000188144800880BF0F7FA03F093FA4A4670
:1037F00039464046FFF720FF20460CF0DDFABDE8D1
:10380000FC9F00000A000020736F6E6732342E7A2E
:103810006B0000003E20D2D4CCABCDF8C9FDBCB6C5
:10382000B3F6B4EDC1CBA1A3B4EDCEF3B4FAC2EBC1
:10383000A3BA360008000020E26501083E20D2D479
:10384000CCABCDF8C9FDBCB6B3F6B4EDC1CBA1A3EA
:10385000B4EDCEF3B4FAC2EBA3BA37003E20D2D413
:10386000CCABCDF8C9FDBCB6B3F6B4EDC1CBA1A3CA
:10387000B4EDCEF3B4FAC2EBA3BA38002DE9FE439F
:1038800080460D4616461F46042102A800F053F854
:10389000B9B202A800F046F80322042100200CF07F
:1038A0008BF804469CB912480088243010490880DF
:1038B00010A013A100234FF6FF72CDE900100C48B1
:1038C0000188174800880BF087FA03F023FA606834
:1038D00002990160B3B22A46214640460FF030F803
:1038E000814620460CF068FA4846BDE8FE83000099
:1038F0000A000020736F6E6732342E7A6B0000006E
:103900003E20D2D4CCABCDF8C9FDBCB6B3F6B4EDF5
:10391000C1CBA1A3B4EDCEF3B4FAC2EBA3BA31008C
:103920000800002070B504460D46264628460AF0D9
:103930001DF9708070BD0022027041707047000058
:103940007CB545250EF0CAFF1E4908600846006890
:1039500098B91D48008824301B4908801BA01EA16F
:1039600000234FF6FF72CDE9001017480188224866
:1039700000880BF031FA03F0CDF92A461F491148AF
:1039800000680EF093FE044634B900221C490D482D
:1039900000680EF0B1FF13E00B48008824300A499C
:1039A00008800AA017A100234FF6FF72CDE900108E
:1039B00005480188104800880BF00EFA03F0AAF9B8
:1039C0007CBD0000180000200A000020736F6E67A5
:1039D00032342E7A6B0000003E20D2D4CCABCDF82E
:1039E000C9FDBCB6B3F6B4EDC1CBA1A3B4EDCEF323
:1039F000B4FAC2EBA3BA390008000020E26501085E
:103A0000413700083E20D2D4CCABCDF8C9FDBCB6BE
:103A1000B3F6B4EDC1CBA1A3B4EDCEF3B4FAC2EBCF
:103A2000A3BA3130000000002DE9F047ADF5067D66
:103A300006460F4614469846DDF838A235464FF044
:103A4000000960892189884213D07D48008824308C
:103A50007B4908807BA07EA100234FF6FF72CDE951
:103A6000001077480188824800880BF0B5F903F010
:103A700051F9608904287DDD6068FFF7D6FDD5F82F
:103A80001412491C884275D16089001F82B2042338
:103A900006A920460CF043F96089001F75490968A2
:103AA0000844744908606189081FC11700EB9171CF
:103AB000C1F38F096189081FC11700EB917189104B
:103AC000B0EB810103D009F101001FFA80F94A46E9
:103AD00006A96948FEF734FD20B101283AD0022832
:103AE00062D14DE065480088401C64490880084662
:103AF00000881E2190FBF1F201FB120048BB6048D8
:103B00000088401D5E4908804EA05EA100234FF64C
:103B1000FF72CDE900104A4801885B4800880BF02D
:103B20005BF9594800880C3057490880544802888E
:103B300056A103A80FF002F842A003A900234FF6F4
:103B4000FF72CDE900103E4801884F4800880BF015
:103B500043F929E03A48008824303949088039A0DF
:103B60004CA100234FF6FF72CDE9001034480188C4
:103B70003F4800E026E000880BF02EF903F0CAF879
:103B80002F48008824302E4908802EA049A1002308
:103B90004FF6FF72CDE900102948018834480088AB
:103BA0000BF01AF903F0B6F800BFD5F81402401C68
:103BB000C5F814026089001FD5F818120844C5F82A
:103BC00018020CE06068FFF730FDD5F81412491CAC
:103BD000884204D1D5F81402401CC5F8140252469C
:103BE00041463846D5F81432FFF748FE6089B0F5F3
:103BF000017F1CDA29463846FFF7FCFC20460CF012
:103C0000DBF810A033A100234FF6FF72CDE90010BE
:103C10000B4801881C4800880BF0DEF80848008833
:103C200024300749088001202C49087006E020460E
:103C30000CF0C2F80DF5067DBDE8F08700BFF9E78E
:103C40000A000020736F6E6732342E7A6B0000001A
:103C50003E20D2D4CCABCDF8C9FDBCB6B3F6B4EDA2
:103C6000C1CBA1A3B4EDCEF3B4FAC2EBA3BA320038
:103C70000800002004000020140000200E00002096
:103C8000120000202D0000001000002025336425C4
:103C9000250000003E20D2D4CCABCDF8C9FDBCB687
:103CA000B3F6B4EDC1CBA1A3B4EDCEF3B4FAC2EB3D
:103CB000A3BA33003E20D2D4CCABCDF8C9FDBCB6FC
:103CC000B3F6B4EDC1CBA1A3B4EDCEF3B4FAC2EB1D
:103CD000A3BA340031303025000000000C00002071
:103CE00010B5882007F0C6F8092007F0CDF80120AC
:103CF000FDF727FA892007F0BDF8012007F0C4F886
:103D00000A20FDF71EFA02F08FFB102007F0B2F830
:103D10000F2007F0B9F80120FDF713FA042007F08F
:103D2000A9F8822007F0B0F80120FDF70AFA142064
:103D300007F0A0F8632007F0A7F8152007F09AF81D
:103D4000002007F0A1F8162007F094F8032007F0F0
:103D50009BF8172007F08EF8032007F095F818203D
:103D600007F088F80B2007F08FF80120FDF7E9F93C
:103D7000192007F07FF8DF2007F086F81A2007F0F7
:103D800079F8012007F080F81B2007F073F81F2056
:103D900007F07AF81C2007F06DF8002007F074F89F
:103DA0001D2007F067F8162007F06EF81E2007F0B8
:103DB00061F8002007F068F81F2007F05BF8012089
:103DC00007F062F80120FDF7BCF9302007F052F847
:103DD000002007F059F8312007F04CF8002007F0D8
:103DE00053F8342007F046F81F2007F04DF835202F
:103DF00007F040F8032007F047F80120FDF7A1F98C
:103E000040F2DF13002240F21F311046FCF782FA25
:103E1000FFF7C3FBFCF7C3FB00F0A2F8FDF79DF929
:103E200000F096F900F0A3F9012000F073F9FF20EB
:103E300000F083F910BD00001CB50024012107200B
:103E400000F0B2F90121880300F08CFA012002F0A1
:103E500033FA8620009003208DF8050002208DF8AB
:103E6000040000208DF806008DF8070069463148EF
:103E7000FEF74CFF0B2201212E48FFF71FF80B2203
:103E800002212C48FFF71AF80B2207212948FFF7D7
:103E900015F83220009069462748FEF737FF0B22BD
:103EA00001212548FFF70AF80B2204212248FFF7D9
:103EB00005F80B2205212048FFF700F84FF4605069
:103EC000009069461D48FEF721FF0B2211461B4852
:103ED000FEF7F4FF0B220C211848FEF7EFFF0B2230
:103EE0000D211648FEF7EAFF0120009003208DF80F
:103EF000050001208DF8040000208DF806008DF8E3
:103F0000070069460B48FEF701FF01210948FFF74A
:103F100033F9322007F044F901210648FFF786F90A
:103F2000FDF730F9FDF778FF04460CB901201CBD00
:103F30000020FCE7000002400008024000040240AC
:103F400010B500F0F3FA0446E0B210BD10B5024817
:103F500008F05CFB10BD00002442002000BFFEE71B
:103F600010B58E2006F086FF00F0EAFAC4B244F0E5
:103F70008004204606F088FF00F00AF910BD704763
:103F800010B54FF4A06000F065F810BD2DE9F041C8
:103F90000446002500270F26E07810B1E0780128BC
:103FA00000D103E08D2123A007F08AF86078102863
:103FB00000DA03E08E211FA007F082F8A078102815
:103FC00000DA03E08F211BA007F07AF8E07820B335
:103FD0001D48006800F4E060C0F5E060C0F307250C
:103FE000C5F10400C7B22E416078B840C5B2A078D0
:103FF000304005432807050E1448217845542078A1
:1040000000F01F0101208840217849114FF0E02283
:1040100002EB8101C1F8000109E0207800F01F01E6
:10402000012088400A492278521141F82200BDE857
:10403000F08100002E2E5C46574C49425C7372633F
:104040005C6D6973632E63000CED00E000E400E03A
:1040500080E100E010B50446B4F5E06F0BD0B4F594
:10406000C06F08D0B4F5A06F05D0B4F5806F02D052
:10407000B4F5407F00D103E0792104A007F020F8D7
:10408000074820430749086010BD00002E2E5C46FB
:10409000574C49425C7372635C6D6973632E6300B5
:1040A0000000FA050CED00E070B504460D46B4F1D1
:1040B000005F02D0B4F1006F00D103E0B72109A086
:1040C00006F0FEFF0C48854200D203E0B82105A0AF
:1040D00006F0F6FF094905EA010020430849086097
:1040E00070BD00002E2E5C46574C49425C737263D3
:1040F0005C6D6973632E6300FFFF0F0080FFFF1F7D
:1041000008ED00E010B5024804F0AEFA10BD000062
:10411000C439002070B5054605F00F068A2006F068
:10412000A9FE00F00DFAC4B204F0F00434432046B6
:1041300006F0AAFE00F02CF870BD10B504468B20E6
:1041400006F098FE204606F09FFE00F021F810BD14
:1041500010B58A2006F08EFE00F0F2F9C4B244F0E9
:104160008004204606F090FE00F012F810BD10B555
:104170008A2006F07FFE00F0E3F9C4B204F0EF04F9
:10418000204606F081FE00F003F810BD70470000E5
:1041900010B500BF40210348FEF766FF0028F9D0A4
:1041A00010BD0000000C024070B504460D461048DA
:1041B000044201D104B104E040F2F9510DA006F02F
:1041C0007FFF0DB1012D00D104E040F2FB5109A0A9
:1041D00006F076FF2DB10F48006820430D490860B6
:1041E00004E00C480068A0430A49086070BD000064
:1041F00000E80B812E2E5C46574C49425C7372637B
:104200005C73746D3332663478785F7263632E63E7
:10421000000000003038024070B504460D461048DA
:10422000044201D104B104E04FF4D8610DA006F0BE
:1042300047FF0DB1012D00D104E040F2C16109A09A
:1042400006F03EFF2DB10F48006820430D4908607D
:1042500004E00C480068A0430A49086070BD0000F3
:1042600000E81FDD2E2E5C46574C49425C7372639A
:104270005C73746D3332663478785F7263632E6377
:10428000000000001038024070B504460D4634F0BE
:10429000010001D104B104E040F235610CA006F048
:1042A0000FFF0DB1012D00D104E040F2366108A0EE
:1042B00006F006FF2DB10E48006820430C49086047
:1042C00004E00B480068A0430949086070BD000085
:1042D0002E2E5C46574C49425C7372635C73746D5E
:1042E0003332663478785F7263632E6300000000B7
:1042F0003838024070B504460D461048044201D1DA
:1043000004B104E040F269610DA006F0D9FE0DB1E0
:10431000012D00D104E040F26A6109A006F0D0FE50
:104320002DB10F48006820430D49086004E00C4897
:104330000068A0430A49086070BD0000003601090A
:104340002E2E5C46574C49425C7372635C73746DED
:104350003332663478785F7263632E630000000046
:104360004038024070B504460D461048044201D161
:1043700004B104E040F296610DA006F0A1FE0DB17B
:10438000012D00D104E040F2976109A006F098FEEB
:104390002DB10F48006820430D49086004E00C4827
:1043A0000068A0430A49086070BD0000CC8088FB0B
:1043B0002E2E5C46574C49425C7372635C73746D7D
:1043C0003332663478785F7263632E6300000000D6
:1043D0004438024070B504460D461048044201D1ED
:1043E00004B104E04FF4EA610DA006F069FE0DB1DE
:1043F000012D00D104E040F2517109A006F060FEE9
:104400002DB10F48006820430D49086004E00C48B6
:104410000068A0430A49086070BD0000CC8688FB94
:104420002E2E5C46574C49425C7372635C73746D0C
:104430003332663478785F7263632E630000000065
:1044400024380240F0B50021002200240225002675
:104450000223324F3F6807F00C0121B1042905D037
:10446000082937D105E02E4F076036E02D4F076051
:1044700033E02A4F3F1F3F68C7F38056274F3F1F47
:104480003F6807F03F036EB1264FB7FBF3F7DFF845
:104490008CC0ACF1040CDCF800C0CCF3881C07FB2A
:1044A0000CF40CE01E4FB7FBF3F7DFF870C0ACF173
:1044B000040CDCF800C0CCF3881C07FB0CF4174F8D
:1044C0003F1F3F68C7F301477F1C7D00B4FBF5F732
:1044D000076002E0124F076000BF00BF0F4F3F6848
:1044E00007F0F0010909104F7A5C0768D740476070
:1044F0000A4F3F6807F4E051890A0B4F7A5C47681E
:10450000D7408760054F3F6807F46041490B064F6D
:104510007A5C4768D740C760F0BD000008380240A9
:104520000024F40040787D01A600002010B500248E
:1045300002480488FFF72CFE204610BD00000260F0
:1045400010B500244FF0C0400488FFF721FE20463C
:1045500010BD00007CB505460024002000900190AD
:1045600000F076FA10F0007F02D00E2420467CBDC9
:104570003C49098888B26946FEF700FB04460CB145
:104580002046F4E7012D35D1019810F4802F2ED06C
:1045900034480088000434490860372048604020CF
:1045A00088600020C860A8020861084600F03EFB51
:1045B0003720FCF723F804460CB12046D7E7022049
:1045C0002949086006204860402088600020C860B3
:1045D0004FF480600861084600F028FB0620FCF7D5
:1045E0000DF804460CB12046C1E72046BFE725245C
:1045F0002046BCE7019810F4803F2FD0194800886E
:104600000004194908603720486040208860002075
:10461000C8604FF480600861084600F007FB37204F
:10462000FBF7ECFF04460CB12046A0E700200E4942
:10463000086006204860402088600020C8604FF471
:1046400080600861084600F0F1FA0620FBF7D6FF0B
:1046500004460CB120468AE7204688E725242046F8
:1046600085E700003C0000205007002010B50446FC
:104670000648044201D104B104E040F2933104A0A1
:1046800006F01EFD0A48046010BD000000F83FFF60
:104690002E2E5C46574C49425C7372635C73746D9A
:1046A0003332663478785F7364696F2E630000007C
:1046B000382C014010B504460648044201D104B12B
:1046C00004E040F2DE3104A006F0FAFC0A4804607F
:1046D00010BD000000F83FFF2E2E5C46574C4942AB
:1046E0005C7372635C73746D3332663478785F73B5
:1046F00064696F2E63000000382C014010B5044639
:104700000CB1012C00D104E040F2511102A006F0DE
:10471000D7FC0948046010BD2E2E5C46574C494218
:104720005C7372635C73746D3332663478785F7374
:1047300064696F2E63000000A080254210B5044616
:104740000CB1012C00D104E04FF4417102A006F03D
:10475000B7FC0948046010BD2E2E5C46574C4942F8
:104760005C7372635C73746D3332663478785F7334
:1047700064696F2E630000008C85254270B5044685
:1047800000256068B0F1007F00D204E04FF4FE71B4
:1047900035A006F095FCA06848B3A068102826D084
:1047A000A068202823D0A068302820D0A068402806
:1047B0001DD0A06850281AD0A068602817D0A06823
:1047C000702814D0A068802811D0A06890280ED03E
:1047D000A068A0280BD0A068B02808D0A068C02886
:1047E00005D0A068D02802D0A068E02800D104E05D
:1047F00040F2FD111CA006F063FCE06810B1E06817
:10480000022800D104E04FF4FF7117A006F058FC15
:104810002069042801D0206900B904E040F2FF11AA
:1048200011A006F04DFC6069012801D0606900B953
:1048300004E04FF400710CA006F042FC124920681D
:104840000860091D60680860081D056825F0F70507
:10485000D4E902010843216908436169084305431B
:1048600009480830056070BD2E2E5C46574C494201
:104870005C7372635C73746D3332663478785F7323
:1048800064696F2E63000000242C014010B50121E3
:10489000C802FFF79FFD00214FF40060FFF79AFD6B
:1048A00010BD000001480068C0B27047102C0140E4
:1048B00070B504460025012C3DD0022C3BD0042CC1
:1048C00039D0082C37D0102C35D0202C33D0402CA8
:1048D00031D0802C2FD0B4F5807F2CD0B4F5007F60
:1048E00029D0B4F5806F26D0B4F5006F23D0B4F58D
:1048F000805F20D0B4F5005F1DD0B4F5804F1AD092
:10490000B4F5004F17D0B4F5803F14D0B4F5003F94
:1049100011D0B4F5802F0ED0B4F5002F0BD0B4F524
:10492000801F08D0B4F5001F05D0B4F5800F02D069
:10493000B4F5000F00D104E04FF45C7105A006F05F
:10494000BFFB0C480068204201D0012500E0002593
:10495000284670BD2E2E5C46574C49425C737263EC
:104960005C73746D3332663478785F7364696F2E6C
:1049700063000000342C014070B504460025012C72
:104980003DD0022C3BD0042C39D0082C37D0102C31
:1049900035D0202C33D0402C31D0802C2FD0B4F502
:1049A000807F2CD0B4F5007F29D0B4F5806F26D05D
:1049B000B4F5006F23D0B4F5805F20D0B4F5005F6C
:1049C0001DD0B4F5804F1AD0B4F5004F17D0B4F510
:1049D000803F14D0B4F5003F11D0B4F5802F0ED035
:1049E000B4F5002F0BD0B4F5801F08D0B4F5001F2C
:1049F00005D0B4F5800F02D0B4F5000F00D104E06B
:104A00004FF46F7105A006F05BFB0C480068204274
:104A100001D0012500E00025284670BD2E2E5C4601
:104A2000574C49425C7372635C73746D3332663405
:104A300078785F7364696F2E63000000342C014046
:104A40000248006800F0030070470000002C01409D
:104A500038B50446002000902CB1042C03D0082C5B
:104A600001D00C2C00D104E04FF4EB7104A006F04F
:104A700027FB0B48204400900098006838BD0000D8
:104A80002E2E5C46574C49425C7372635C73746DA6
:104A90003332663478785F7364696F2E6300000088
:104AA000142C014010B500F083FE10BD70B5044613
:104AB0000D4614F07F4F01D104B104E040F23E31C5
:104AC0000CA006F0FDFA0DB1012D00D104E040F27A
:104AD0003F3108A006F0F4FA2DB10E4800682043DB
:104AE0000C49086004E00B480068A04309490860CD
:104AF00070BD00002E2E5C46574C49425C737263B9
:104B00005C73746D3332663478785F7364696F2ECA
:104B1000630000003C2C014070B50446002520686D
:104B200018B12068B0F5005F00D104E04FF48E7139
:104B300025A006F0C5FA606818B16068B0F5806F0E
:104B400000D104E040F21D111FA006F0B9FAA068E0
:104B500018B1A068B0F5007F00D104E04FF48F7168
:104B600019A006F0ADFAE06838B1E068B0F5006F62
:104B700003D0E068B0F5805F00D104E040F21F117F
:104B800011A006F09DFA206918B12069B0F5804F98
:104B900000D104E04FF490710BA006F091FA124896
:104BA000056847F6FF608543207DA168084361687A
:104BB0000843E16808432168084321690843054325
:104BC0000948056070BD00002E2E5C46574C4942D6
:104BD0005C7372635C73746D3332663478785F73C0
:104BE00064696F2E63000000042C014008B5312079
:104BF0008DF8000000208DF801008DF802000120E2
:104C00008DF803006846FFF7C1F93B208DF80000DE
:104C100000208DF801006846FFF7B8F908BD0000D4
:104C20000148006870470000802C014070B50446C0
:104C300000256068402800D204E04FF4CA7120A02B
:104C400006F03EFAA06828B1A068402802D0A0680B
:104C5000C02800D104E040F2951119A006F030FA06
:104C6000E06838B1E068B0F5807F03D0E068B0F567
:104C7000007F00D104E04FF4CB7111A006F020FAC0
:104C80002069B0F5806F01D0206900B904E040F2DE
:104C900097110BA006F014FA114920680860081D4E
:104CA00005686FF30A05D4E901010843E168084388
:104CB0002169084305430A48001D056070BD0000D6
:104CC0002E2E5C46574C49425C7372635C73746D64
:104CD0003332663478785F7364696F2E6300000046
:104CE000082C014010B504460CB1032C00D104E09F
:104CF00040F2611102A006F0E3F90948046010BD1A
:104D00002E2E5C46574C49425C7372635C73746D23
:104D10003332663478785F7364696F2E6300000005
:104D2000002C014008B50120009008210448FEF73E
:104D30009BF908B1002000909DF8000008BD00001C
:104D40000000024070B50446002520480068032892
:104D500002D12725284670BD1C48006838B11B4881
:104D60000068012803D01948006802282CD1B4F546
:104D7000805F02D127252846EDE7B4F5006F13D1F7
:104D80000120FFF7E7FB0546F5B90020104908753B
:104D90000860486088604FF40060C86000200861C7
:104DA0000846FFF7B9FE0FE00020FFF7D3FB0546EA
:104DB00055B9002006490875086048608860C860D9
:104DC00008610846FFF7A8FE2846C4E7380000201F
:104DD000380700202DE9F04788B005460F464FF010
:104DE00001084FF000094FF0030A2B4A07CA05AB30
:104DF00007C30024002629A02BA100234FF6FF7231
:104E0000CDE900103946284609F0E6FF05F1D80043
:104E100085B2FDF765FCF320FDF780FA00BF23E0C3
:104E200005A951F82400FEF7D9FA81460221484627
:104E3000FDF798FA092802D04FF0000816E006F1B5
:104E40001E00C6B232461DA102A80DF077FE13A0C7
:104E500002A900234FF6FF72CDE90010394628461B
:104E600009F0BAFF601CC4B2032CD9DB00BF4FF4B9
:104E7000FA7006F095F909A012A100234FF6FF720F
:104E8000CDE900103946284609F0A6FFFDF784FB5E
:104E9000404608B0BDE8F087582E0108736F6E6772
:104EA00032342E7A6B0000003E20D5FDD4DAB2C138
:104EB000B3FD666C6173682E2E2E000025336425C9
:104EC000250000003130302500000000F0B501461B
:104ED00000200022C64B1B7881F85630C54B1B883A
:104EE000A1F85430C44B1B681A0E93090B70C2F31F
:104EF00083034B7002F003038B70BF4B1B68C3F33B
:104F00000742CA70BC4B1B88C3F307220A71BA4B15
:104F10001A784A715B681A0E1301CB80B64B5B6836
:104F2000C3F30742CB8843EA1213CB8002F00F038E
:104F30000B72B14B9B88C3F30722D3094B72C2F3A8
:104F400080138B72C2F34013CB72C2F300130B7346
:104F500000234B73A64B1B681BB1A54B1B68012B91
:104F60004FD193071B0D0B61A34B1A790B6943EAD1
:104F700082030B61A04B9B681A0E0B6943EA9213E4
:104F80000B61C2F3C2030B7502F007034B759A4B1A
:104F90009B68C3F3074253098B75C2F38203CB7539
:104FA00093075B0F0B76944B1B89C3F307220B7E91
:104FB00043EAD2130B760B695B1C0024C1E912345F
:104FC0000B7ED1E912649B1C012505FA03F3DF1760
:104FD000A6FB035C04FB03C306FB0733C1E91253C2
:104FE0000C7A0123A3400B650027D1E912560B6D03
:104FF000A5FB034C06FB03C305FB0733C1E91243C2
:105000002DE07B4B1B68022B29D17B4B1A79930631
:105010009B0A0B61784B9B681A0E0B6943EA0223CB
:105020000B61754B9B68C3F307420B6913430B611C
:10503000714B1B89C3F307220B695B1C4FF400748F
:10504000A3FB04344FF480660025A3FB067C04FB1D
:1050500006C403FB0543C1E9127373100B65C2F369
:10506000801301F8193F93065B0E4B70624B1A7A5E
:105070004B7843EAD2134B7002F07F038B705E4B88
:10508000DB681A0ED309CB70C2F341130B71C2F364
:1050900082034B7193071B0F8B71574BDB68C3F374
:1050A00007428B7943EA92138B71C2F34013CB71A1
:1050B00000230B7202F001034B724F4B9B89C3F329
:1050C0000722D3098B72C2F38013CB72C2F3401351
:1050D0000B73C2F300134B73C2F381038B7302F0A3
:1050E0000303CB73444B1A7B53080B7401234B749B
:1050F000424B1B681A0ECA74A1F119013F4B1B6881
:10510000C3F307424FEA0224CC853C4B1B88C3F310
:105110000722CB8D43EA0203CB85384B1A784FEA3E
:1051200002640C635B684FEA13620B6B43EA024450
:105130000C63324B5B68C3F307420B6B43EA0224F8
:105140000C632E4B9B88C3F307220B6B43EA0203CD
:105150000B632A4B1A794FF034035A54274B9B6840
:105160004FEA13624FF035035A54244B9B68C3F344
:1051700007424FEA02648C63204B1B89C3F307226A
:105180008B6B43EA02448C631C4B1A7A8B6B43EAA9
:1051900002248C63194BDB684FEA13628B6B43EA82
:1051A00002038B63154BDB68C3F307424FF03C03EC
:1051B0005B5C43EA12144FF03C035C544FEA027309
:1051C0004FEA1354CC870D4B9B89C3F30722CB8F37
:1051D00043EA0203CB87094B1A7B4FEA52044FF094
:1051E00040035C544FF001044FF041035C54F0BDA8
:1051F000380000203C000020B0060020C00600203F
:1052000008B500200090FFF78DFD012809D1684600
:1052100000F08AFC08B1FF2008BD0098C0F34320CD
:10522000FAE7FF20F8E710B50424FFF7E9FF04468A
:10523000042C01D1002010BDFF2C01D10220FAE77F
:105240000120F8E708B500200090FFF7CFFC00F040
:1052500069F9FFF71BFB00F0C7F900909DF800000B
:1052600010B19DF8000008BD00F030F800909DF8E6
:10527000000010B19DF80000F5E700201149087505
:10528000086048608860C86008610846FFF744FC11
:105290000D48FFF71BFE00909DF8000030B90A4949
:1052A000B1F85410080400F025FC00909DF80000AF
:1052B00020B94FF40060FFF745FD00909DF8000015
:1052C000D1E7000038070020E006002038B50024B0
:1052D00001200090FFF7B4FB10B92524204638BD0B
:1052E00044480068042828D0002043490860022070
:1052F0004860C02088600020C8604FF4806008616A
:105300000846FFF793FCFBF711FA04460CB1204660
:10531000E5E70020FFF79CFB384908600420FFF711
:1053200097FB364948600820FFF792FB33498860B5
:105330000C20FFF78DFB3149C8602E48006858B13A
:105340002C480068012807D02A480068062803D0A6
:1053500028480068022816D1002027490860032049
:105360004860402088600020C8604FF48060086179
:105370000846FFF75BFC69460320FBF717FA044673
:105380000CB12046ABE71B48006804282ED0BDF8BE
:1053900000001B490860BDF80000000416490860C1
:1053A00009204860C02088600020C8604FF48060F9
:1053B00008610846FFF73AFCFBF7B8F904460CB160
:1053C00020468CE70020FFF743FB0E4908600420CD
:1053D000FFF73EFB0B4948600820FFF739FB0949FE
:1053E00088600C20FFF734FB0649C8600024204683
:1053F00075E700003800002050070020C00600209C
:105400003C000020B006002030B58FB005460C46A9
:105410004FF0FA511D48FBF741FA00211B48FBF7FA
:10542000C1FA1A48FBF72EFB4FF0006000901848B5
:105430000190029500200390049405904FF4806041
:1054400006908000079080000890002009904FF49B
:1054500040300A9004200B9003200C904FF4000081
:105460000D9080100E9069460848FBF709FD012257
:1054700010210648FBF778FC20210448FBF704FCC8
:1054800001210248FBF78EFA0FB030BD586402408C
:10549000802C014030B58FB005460C464FF0FA51D4
:1054A0001E48FBF7FBF900211C48FBF77BFA1B4861
:1054B000FBF7E8FA4FF00060009019480190029560
:1054C000402003900494002005904FF480600690E3
:1054D0008000079080000890002009904FF4403031
:1054E0000A9004200B9003200C904FF400000D90C4
:1054F00080100E9069460948FBF7C2FC012210217A
:105500000648FBF731FC20210448FBF7BDFB0121D5
:105510000248FBF747FA0FB030BD00005864024064
:10552000802C01401CB501210D20FEF73DFE0C2210
:1055300008212A48FDF7C2FC0C2209212748FDF763
:10554000BDFC0C220A212548FDF7B8FC0C220B21DA
:105550002248FDF7B3FC0C2211462048FDF7AEFCB3
:105560000C2202211E48FDF7A9FC4FF47060009048
:1055700003208DF8050002208DF8040000208DF82E
:10558000060001208DF8070069461448FDF7BEFBB0
:105590000420009069461248FDF7B8FB4FF4805094
:1055A000009000208DF8070069460C48FDF7AEFB1F
:1055B0000820009000208DF8040002208DF80700DC
:1055C00069460848FDF7A2FB0121C802FEF7CAFEA2
:1055D00001218805FEF7E8FD1CBD0000000802401F
:1055E000000C024000000240F8B5002000900025A9
:1055F00000240026002776205F49087500200860F7
:1056000048608860C86008610846FFF785FA032093
:10561000FFF768FB0120FFF771F800205749086089
:1056200048608860C8604FF4806008610846FFF7F2
:10563000FDFAFAF7CDFF00909DF8000010B19DF83B
:105640000000F8BD4FF4D5704C4908600820486050
:10565000402088600020C8604FF4806008610846E0
:10566000FFF7E4FAFBF7F0F800909DF8000020B98E
:10567000012043490860870712E000203F49086085
:1056800037204860402088600020C8604FF4806068
:1056900008610846FFF7CAFA3720FAF7AFFF009013
:1056A000002036490860372048604020886000208C
:1056B000C8604FF4806008610846FFF7B7FA3720EA
:1056C000FAF79CFF00909DF80000002851D13BE0C4
:1056D00000202A4908603720486040208860002068
:1056E000C8604FF4806008610846FFF79FFA3720D2
:1056F000FAF784FF00909DF8000010B19DF80000BB
:105700009FE7204838431D49086029204860402011
:1057100088600020C8604FF4806008610846FFF789
:1057200085FAFBF727F800909DF8000010B19DF86E
:10573000000086E70020FFF78BF90546012080EA8C
:10574000D57080F00106641C1EB94FF6FF708442CC
:10575000BED34FF6FF70844204D31B2000909DF807
:1057600000006EE705F08040050002D002200449E9
:1057700008609DF8000064E738070020500700200B
:10578000380000200000108010B50748006810F0B5
:10579000C05F08D00120054908604FF0C25102489F
:1057A0005830FBF77BF810BD006402404C0000202D
:1057B00010B54FF48070FFF7DFF850B10020254995
:1057C00008704FF48070FEF775FF012022490860D1
:1057D00037E00220FFF7D0F830B10220FEF76AFF71
:1057E00002201C4908702CE00820FFF7C5F830B1F2
:1057F0000820FEF75FFF04201649087021E02020F2
:10580000FFF7BAF830B12020FEF754FF0620114907
:10581000087016E01020FFF7AFF830B11020FEF747
:1058200049FF05200B4908700BE04FF40070FFF7AB
:10583000A3F830B14FF40070FEF73CFF0720054994
:10584000087000214CF23A30FFF730F90148007837
:1058500010BD000044000020480000202DE9F05F4A
:1058600082460F4614464FF000085546C146C346CF
:10587000002614B90120BDE8F09FFCF731FFF320AA
:10588000FCF74CFD2046E11704EB91718910A4EB65
:1058900081011FFA81F9A4EB090084B223E0287882
:1058A000697840EA0120A97840EA0140E97840EAB5
:1058B000016888F055381C49394488194146FCF77D
:1058C000C1FE09280BD1184838448059404503D0FF
:1058D000FCF762FE0020CEE7361D2D1D03E0FCF72D
:1058E0005BFE0020C7E7A642D9D3B9F1000F17D05D
:1058F0004FF0000B12E029780B4A3A449019FCF75C
:1059000055FE092802D1761C6D1C03E0FCF744FE0D
:105910000020B0E70BF1010000F0FF0BCB45EADB04
:10592000FCF73AFE0120A6E7000002082DE9F0414D
:1059300007460D461446002600202D4908702D49C3
:1059400008602D4908602D4908602D48006802282C
:1059500001D104026D0A2B480460102029494860D7
:10596000402088600020C8604FF4806008610846CD
:10597000FFF75CF91020FAF741FE064616B13046F3
:10598000BDE8F0814FF0FF301F49086008464460D1
:10599000902088600220C8600020086101204861D2
:1059A0000846FEF7EBFE17480560112015494860D0
:1059B000402088600020C8604FF48060086108467D
:1059C000FFF734F91120FAF719FE06460EB13046FA
:1059D000D6E7012140F22A30FFF768F80120FEF7F0
:1059E000ADFE21463846FFF70FFD3046C8E7000000
:1059F0004400002048000020400000202C2C0140E2
:105A00003800002050070020640700202DE9F041F5
:105A100080460D4614461E46002700202E49087079
:105A20002E49086001202E49086000202D49086099
:105A30002D480068022801D104026D0A2B48046039
:105A400010202A494860402088600020C8604FF438
:105A5000806008610846FFF7E9F81020FAF7CEFDEC
:105A6000074617B13846BDE8F0814FF0FF302049B6
:105A7000086006FB04F04860902088600220C8603F
:105A800000200861012048610846FEF777FE1748AC
:105A90000560122015494860402088600020C860D9
:105AA0004FF4806008610846FFF7C0F81220FAF74B
:105AB000A5FD07460FB13846D5E7012140F22A304F
:105AC000FEF7F4FF0120FEF739FE06FB04F1404625
:105AD000FFF79AFC3846C6E7440000204800002043
